:100000000C940E010C9436010C9436010C943601BC
:100010000C9436010C9436010C9436010C94360184
:100020000C9436010C9436010C94D5020C945503B3
:100030000C9436010C9436010C9436010C94360164
:100040000C9436010C9436010C9436010C94360154
:100050000C9436010C9436010C9436010C94A906CC
:100060000C9436010C9436010C9436010C94360134
:100070000C9436010C9436010C9436010C94360124
:100080000C9485050C9436010C9436010C943601C1
:100090000C9436010C9436010C9436010C94360104
:1000A0000C9436010C9436010C94360165076807F0
:1000B00057075B0761078907890789076C0770077E
:1000C00074077A077E07890784074A0D8E10600D32
:1000D0008E10800D8E10B80D8E10E30D8E103E0E1A
:1000E0008E10F50E8E10350F8E10700F8E10A00F23
:1000F0008E101B106B0E700E750E7F0E890ED30EB8
:10010000D30ED30E930E9D0EA70EB10EBE0ED30EC0
:10011000C60E00000000240027002A002D00300039
:10012000000000002300260029002C002F000408F6
:1001300002011040804010204080408008020401ED
:10014000804020100201108010204040200000005C
:1001500000250028002B002E0031000404040404B4
:10016000030405020202020403020202020606065A
:1001700006060604040202020404080B000202023E
:100180000100090400000102020000052400100122
:1001900005240101010424020605240600010705C7
:1001A000810310004009040100020A000000070555
:1001B0000202400000070583024000000403090416
:1001C00012010002EF0201404F1B069200010102E2
:1001D0000301537061726B46756E00537061726BF0
:1001E00046756E2050726F204D6963726F00030078
:1001F00000000200090F0000030401000C000000D1
:1002000000000000000000000000000000070605DC
:10021000040100080A0B0C0D0900490B11241FBE34
:10022000CFEFDAE0DEBFCDBF11E0A0E0B1E0ECE15E
:10023000F2E202C005900D92A832B107D9F722E090
:10024000A8E2B1E001C01D92A232B207E1F711E0CD
:10025000CEE0D1E004C02197FE010E94EC10CD3029
:10026000D107C9F70E945E0B0C940C110C9400008E
:100270004091540150915501209152013091530108
:1002800042175307B4F49091E8009570E1F3909110
:10029000E80092FD19C08093F10080915401909183
:1002A000550101968F739927892B19F48EEF80934E
:1002B000E800809154019091550101969093550169
:1002C0008093540181E0089580E00895CF92DF92F9
:1002D000EF92FF920F931F93CF93DF931F92CDB7AF
:1002E000DEB7182F062FE42E862F880F8E5F998396
:1002F0000E94380183E00E943801F12EC12E9981BD
:10030000D92E8C2D8F19801798F4F601E7FE02C0C4
:10031000849101C080810E943801182F80E00E94E2
:1003200038018123FFEFCF1ADF0A8111EACF01C024
:1003300081E00F90DF91CF911F910F91FF90EF908F
:10034000DF90CF900895DF92EF92FF920F931F936B
:10035000CF93DF93D82E8A017B01E40EF51EEB01CB
:10036000CE15DF0571F0D7FE03C0FE01849101C0F8
:1003700088810E94380121968111F2CF8FEF9FEF83
:1003800001C0C801DF91CF911F910F91FF90EF90B5
:10039000DF900895615030F02091F100FC0120833E
:1003A0000196F8CF289884E6809314020895CF929E
:1003B000DF92EF92FF920F931F93CF93DF936C0125
:1003C0007A018B01C0E0D0E0CE15DF0589F0D801BD
:1003D0006D918D01D601ED91FC910190F081E02DA0
:1003E000C6010995892B11F47E0102C02196ECCF3C
:1003F000C701DF91CF911F910F91FF90EF90DF9098
:10040000CF900895CF93DF931F92CDB7DEB7698366
:10041000DC01ED91FC910280F381E02D41E050E0A0
:10042000BE016F5F7F4F09950F90DF91CF910895C7
:10043000FC018485958597FD0BC09FB7F89482E0F9
:100440008093E9008091F2009FBF90E001960895AB
:100450009FB7F89482E08093E9008091F2009FBFFB
:1004600090E00895089580E090E008953FB7F894F3
:100470008091320190913301A0913401B091350106
:1004800026B5A89B05C02F3F19F00196A11DB11DEF
:100490003FBFBA2FA92F982F8827820F911DA11D2A
:1004A000B11DBC01CD0142E0660F771F881F991F67
:1004B0004A95D1F708950C94F3060F931F93CF93A9
:1004C000DF931F92CDB7DEB782E0898342E450E02C
:1004D0006AE771E080E80E94A3010E943907DC010D
:1004E00012960D911C9113970115110569F0D80111
:1004F000ED91FC910280F381E02DBE016F5F7F4F93
:10050000C801099597FF07C089810F90DF91CF91AE
:100510001F910F910895F80100851185E5CF0E9484
:10052000280790E008950F931F93CF93DF931F92B6
:10053000CDB7DEB78C01FC018485958597FF0EC091
:10054000CE0101960E94FE06019719F4298130E040
:1005500002C02FEF3FEFF80135872487F80184852B
:1005600095850F90DF91CF911F910F910895CF93B3
:10057000DF931F92CDB7DEB7FC018485958597FD8B
:1005800005C02FEF3FEF358724870BC0CE010196C2
:100590000E94FE06019719F4898190E002C08FEF56
:1005A0009FEF0F90DF91CF9108951F920F920FB69A
:1005B0000F9211242F933F934F935F936F937F93E9
:1005C0008F939F93AF93BF93CF93EF93FF93C0917C
:1005D000E1008091E100837F8093E100C3FF0FC0C1
:1005E0001092E90081E08093EB001092EC0082E32E
:1005F0008093ED001092150288E08093F000C2FF16
:1006000018C00E94F30680915601882339F080912A
:100610005601815080935601882389F180911402FC
:10062000882339F08091140281508093140288232A
:1006300041F1C4FF10C08091E2008E7E8160809302
:10064000E2008091E1008F7E8093E100809158016B
:100650008E7E806111C0C0FF16C08091E2008E7E48
:1006600080618093E2008091E1008E7E8093E100C2
:10067000809158018E7E81608093580104C05D9AFC
:10068000CDCF289AD6CFFF91EF91CF91BF91AF9167
:100690009F918F917F916F915F914F913F912F919A
:1006A0000F900FBE0F901F9018951F920F920FB6CC
:1006B0000F921124CF92DF92EF92FF920F931F932C
:1006C0002F933F934F935F936F937F938F939F935A
:1006D000AF93BF93EF93FF93CF93DF93CDB7DEB785
:1006E0006C97DEBFCDBF1092E9008091E80083FFD8
:1006F000EDC168E0CE0145960E94CA0182EF809369
:10070000E8008D8987FF05C09091E80090FFFCCF3D
:1007100003C09EEF9093E800982F907609F0C6C032
:100720009E892F89188D91110CC0803829F48091F1
:1007300059018093F10002C01092F1001092F10073
:1007400048C1422F50E0512B913051F4811141C1E9
:100750004130510509F03DC1809159018D7F0BC099
:10076000933061F4811135C14130510509F031C137
:10077000809159018260809359012BC1953041F4D9
:100780008091E80080FFFCCF20682093E30021C126
:10079000963009F05FC0EB8CFC8C1092E90010924F
:1007A000550110925401123091F51092530110929C
:1007B00052010E945D0299E0BE016F5F7F4FDB0135
:1007C000E92F1D92EA95E9F799831A8391E09E83B8
:1007D00090EA98879AEF99872091540130915501BA
:1007E000275F3F4F3C832B838D831092E90010924B
:1007F000550110925401F0925301E092520149E0E8
:1008000050E080E00E94A3010E945D02E2C0F092ED
:100810005301E09252010E943907DC011296ED90DB
:10082000FC901397E114F10409F4C0C0D701ED91D5
:10083000FC910480F581E02DBE016B5E7F4FC70106
:100840000995009719F00CF0C4C0C7C0F701E08407
:10085000F184E8CF973009F4C0C0983021F481E0EA
:100860008093F100B6C0993009F0B3C0837009F0ED
:10087000B4C0E1E2F1E081E021E036E39081992328
:1008800061F08093E9002093EB0091919093EC004C
:100890003093ED008F5F873089F78EE78093EA0011
:1008A0001092EA008F898093150293C08B8D9C8DE6
:1008B0001092E90010925501109254019093530147
:1008C00080935201898D811156C08E899D89913AFC
:1008D00059F4813209F081C047E050E064E071E0F2
:1008E00080E00E94A30175C0913209F076C0833286
:1008F00089F4888D90E0982F88272F89822BA0E09B
:10090000B0E08093000190930101A0930201B093A5
:1009100003015FC0803269F48091E80082FFFCCF60
:1009200067E084E091E00E94CA018BEF8093E800C9
:1009300006C0823209F04DC08F8980930B018091EF
:100940005701882319F0EEEFFAE002C0E0E0F8E08A
:100950008091040190910501A0910601B0910701D9
:10096000803B9440A105B10509F07BC080910B014B
:1009700080FF93C076C00E943907DC0112960D916A
:100980001C9113970115110541F1D801ED91FC91CE
:100990000190F081E02DBE016B5E7F4FC80109958B
:1009A000811117C0F80100851185ECCF113009F4D1
:1009B0004EC0133091F48F89882309F445C08230EA
:1009C00081F440E862E18BED91E00E9466018823AA
:1009D00021F08EEF8093E80079C081E28093EB00F4
:1009E00075C0813029F440E868E082ED91E0EDCFF8
:1009F000833099F70E943907DC011296ED90FC9044
:100A000013978E010F5F1F4F6801E114F10479F015
:100A1000D701ED91FC910680F781E02DB801C70167
:100A20000995080F111DF701E084F184EECFD8017C
:100A30001C92F60101900020E9F73197BF016C1973
:100A40007D0940E0C601C1CF6CEB71E002C060ECF3
:100A500071E06115710509F2FB01449150E080E8F5
:100A600040CF0FB6F894A89580916000886180937C
:100A70006000109260000FBEA895EE3F2AE0F207DA
:100A800039F08091FE0A9091FF0A91838083A1CF73
:100A90001092FF0A1092FE0A9CCFEE3F8AE0F80700
:100AA00031F0808191819093FF0A8093FE0A87E75D
:100AB00097E7918380839BE088E10FB6F894A8952F
:100AC000809360000FBE9093600083CF6C960FB64A
:100AD000F894DEBF0FBECDBFDF91CF91FF91EF91B4
:100AE000BF91AF919F918F917F916F915F914F9146
:100AF0003F912F911F910F91FF90EF90DF90CF903A
:100B00000F900FBE0F901F9018951F920F920FB667
:100B10000F9211242F933F938F939F93AF93BF9383
:100B2000EF93FF9380914E0190914F01A09150015E
:100B3000B0915101892B8A2B8B2B51F180914D0162
:100B4000E0914B01F0914C01908189278083809145
:100B50004E0190914F01A0915001B0915101181692
:100B600019061A061B064CF580914E0190914F0113
:100B7000A0915001B09151010197A109B109809351
:100B80004E0190934F01A0935001B093510115C0B5
:100B9000809171008D7F8093710090914D01E09163
:100BA0004B01F0914C018081282F30E0892F90E09B
:100BB00080959095822393238083FF91EF91BF913D
:100BC000AF919F918F913F912F910F900FBE0F90FA
:100BD0001F9018958F929F92AF92BF92CF92DF9203
:100BE000EF92FF926B017C010E9436024B015C0187
:100BF000C114D104E104F104F1F00E943602DC01D9
:100C0000CB0188199909AA09BB09883E9340A1051F
:100C1000B10570F321E0C21AD108E108F10888EEAD
:100C2000880E83E0981EA11CB11CC114D104E104FC
:100C3000F10419F7DDCFFF90EF90DF90CF90BF90D8
:100C4000AF909F908F9008958F929F92AF92BF9296
:100C5000CF92DF92EF92FF920F931F93CF93DF9388
:100C60005C016B017A0180910B01882309F45BC060
:100C700080911502882309F456C08091580180FFA5
:100C800005C08091E00082608093E000E70110E001
:100C90000AEF83E0882E9AE3992E2097D9F10E94DB
:100CA000280781110AC0015009F43DC061E070E0DD
:100CB00080E090E00E94EA05F0CF282F30E0C217D4
:100CC000D3070CF48C2F4FB7F8948092E9009091E1
:100CD000E80095FF1DC0282F30E0C21BD30BF601A2
:100CE000982F915020F081918093F100FACFC20E9D
:100CF000D31E112319F09092E80009C08091E800FA
:100D000085FD06C09092E80011E0209709F010E000
:100D10004FBFC3CF1111C3CF5D9884E680935601B6
:100D20001E141F0444F081E090E0F5019383828358
:100D300080E090E001C0C701DF91CF911F910F913A
:100D4000FF90EF90DF90CF90BF90AF909F908F90EB
:100D500008951F920F920FB60F9211242F933F9375
:100D60008F939F93AF93BF9380912E0190912F010A
:100D7000A0913001B091310130912D0123E0230F7A
:100D80002D3720F40196A11DB11D05C026E8230FC3
:100D90000296A11DB11D20932D0180932E019093E9
:100DA0002F01A0933001B0933101809132019091D5
:100DB0003301A0913401B09135010196A11DB11DFF
:100DC0008093320190933301A0933401B0933501A5
:100DD000BF91AF919F918F913F912F910F900FBE37
:100DE0000F901F90189583E08093E9008091F200A6
:100DF000882319F08AE38093E8000895FC0180912C
:100E00001502811103C08FEF9FEF08959FB7F894EB
:100E100082E08093E9002091F20030E01216130680
:100E200014F421E030E02115310559F0289884E6CA
:100E3000809314028091F10080838091F2008823D6
:100E400019F09FBFC90108958BE68093E800F9CFA0
:100E50002FB7F89483E08093E9009091E800892F00
:100E6000807295FF04C09091F20080E4891B2FBF2F
:100E7000089580911A0281110DC082E080931602BC
:100E800084E080931702109219021092180281E0F8
:100E900080931A0286E192E0089590E0FC01319778
:100EA000EF30F105B0F5EA5AFF4F0C94EC10809149
:100EB00080008F7703C0809180008F7D80938000B9
:100EC000089580918000877FF9CF84B58F7702C025
:100ED00084B58F7D84BD0895809190008F7707C081
:100EE000809190008F7D03C080919000877F8093D8
:100EF000900008958091C0008F7703C08091C0005A
:100F00008F7D8093C00008958091C200877F809379
:100F1000C2000895CF93DF93282F30E0F901E1510B
:100F2000FE4F8491F901E25DFE4FD491F901E55A3B
:100F3000FE4FC491CC2391F081110E944D07EC2FFC
:100F4000F0E0EE0FFF1FE05EFE4FA591B491EC9133
:100F5000ED2381E090E021F480E002C080E090E0A9
:100F6000DF91CF9108951F93CF93DF93282F30E027
:100F7000F901E151FE4F8491F901E25DFE4FD491F8
:100F8000F901E55AFE4FC491CC23C9F0162F811107
:100F90000E944D07EC2FF0E0EE0FFF1FE35BFE4FCA
:100FA000A591B4918FB7F894111105C09C91ED2FC4
:100FB000E095E92302C0EC91ED2BEC938FBFDF911C
:100FC000CF911F910895CF93DF9390E0FC01E25DF4
:100FD000FE4F2491FC01E55AFE4F8491882361F174
:100FE00090E0880F991FFC01EE5EFE4FC591D491F1
:100FF000FC01E35BFE4FA591B491611109C09FB75D
:10100000F8948881209582238883EC912E230BC04D
:10101000623061F49FB7F8943881822F80958323E2
:101020008883EC912E2B2C939FBF06C08FB7F8942A
:10103000E8812E2B28838FBFDF91CF9108953F92B7
:101040004F925F926F927F928F929F92AF92BF92D8
:10105000CF92DF92EF92FF920F931F93CF93DF9384
:1010600000D000D0CDB7DEB729013A0190910C0134
:10107000981721F09F3F09F090C204C0EEEEF1E016
:101080003490AEC080930C01EEEEF1E0E491EF3FBE
:1010900009F483C2E13009F452C01CF5E1119FC08C
:1010A00014BC15BC94B5926094BD95B5916095BD86
:1010B000282F30E0F901E55AFE4FE491F0E0EE0F01
:1010C000FF1FE35BFE4F4591549150933E014093C7
:1010D0003D01F901E25DFE4FE491E0933C01312CCA
:1010E00081C0E33009F453C0E43009F078C01092B5
:1010F000C0001092C1009091C10098609093C1000F
:101100009091C10091609093C100482F50E0FA0186
:10111000E55AFE4FE491F0E0EE0FFF1FE35BFE4F58
:10112000259134913093380120933701FA01E25D23
:10113000FE4FE491E0933601B4E03B2E53C0109291
:1011400080001092810090918100986090938100BE
:1011500090918100916090938100282F30E0F901F7
:10116000E55AFE4FE491F0E0EE0FFF1FE35BFE4F08
:101170004591549150933B0140933A01F901E25D4E
:10118000FE4FE491E0933901332433942BC0109245
:10119000900010929100909191009860909391002E
:1011A00090919100916090939100282F30E0F90187
:1011B000E55AFE4FE491F0E0EE0FFF1FE35BFE4FB8
:1011C0004591549150934C0140934B01F901E25DDC
:1011D000FE4FE491E0934D0103E0302E03C03E2E1C
:1011E00037FCDBC18B0161E00E94E3074801A12CC1
:1011F000B12C832D8D7F09F0CCC060E072E18AE7CD
:1012000090E0A50194010E94CD1029833A834B837D
:101210005C8369017A0121E0C21AD108E108F10872
:101220008FEFC816D104E104F10409F008F44BC0B3
:1012300060E472E48FE090E0A50194010E94CD107B
:1012400069017A0191E0C91AD108E108F108E2E0E8
:101250003E121FC0FFEFCF16D104E104F10409F0E4
:1012600008F4F4C060E970ED83E090E0A50194011A
:101270000E94CD1069017A0181E0C81AD108E10805
:10128000F1089FEFC916D104E104F10409F010F54B
:10129000DDC0EFEFCE16D104E104F104B1F0A8F007
:1012A00068E478EE81E090E0A50194010E94CD1001
:1012B00069017A01F1E0CF1AD108E108F108332081
:1012C00009F437C12CC181E001C082E0332009F468
:1012D0005BC0BCC068E478EE81E090E0A5019401B9
:1012E0000E94CD1069017A01F1E0CF1AD108E1081E
:1012F000F1082FEFC216D104E104F10409F008F45B
:10130000A5C064E274EF80E090E0A50194010E9422
:10131000CD1069017A0181E0C81AD108E108F1080D
:101320009FEFC916D104E104F10409F008F48EC05E
:1013300062E17AE780E090E0A50194010E94CD107F
:1013400069017A0181E0C81AD108E108F1089FEF2C
:10135000C916D104E104F10409F008F4DEC0898162
:101360009A81AB81BC814AE0B595A7959795879501
:101370004A95D1F76C017D01E1E0CE1AD108E10870
:10138000F108311063C085E095B5987F892B85BD44
:101390005DC060E072E18AE790E0A50194010E94DF
:1013A000CD1069017A01F1E0CF1AD108E108F10806
:1013B000C114D10421E0E206F10488F068E478EE7B
:1013C00081E090E0A50194010E94CD1069017A01AD
:1013D00081E0C81AD108E108F10883E001C081E08A
:1013E00091E039120FC090918100987F892B8093F2
:1013F0008100411451046104710469F52FEF3FEF3E
:10140000A90157C0E3E03E120FC090919100987F70
:10141000892B809391004114510461047104D9F423
:101420002FEF3FEFA90157C0F4E03F120FC090919A
:10143000C100987F892B8093C1004114510461043D
:10144000710449F42FEF3FEFA90157C04114510433
:101450006104710471F0D801AA0FBB1FA3019201AE
:101460000E94F21028EE33E040E050E00E94AB1002
:1014700003C02FEF3FEFA90181E03816D1F08315AB
:101480008CF031108AC0C7BC2093470130934801CB
:101490004093490150934A0180916E00826080938D
:1014A0006E007BC093E03916B1F0E4E03E1629F1FE
:1014B00074C0D0928900C092880020934301309379
:1014C0004401409345015093460180916F00826032
:1014D00080936F0062C0D0929900C09298002093D0
:1014E0004E0130934F014093500150935101809130
:1014F000710082608093710050C0C092CF00209331
:101500003F0130934001409341015093420180914B
:10151000720080648093720040C086E0D7CEEFEF07
:10152000CE16D104E104F10411F008F001CF84E0FB
:10153000CDCE8FEFC816D104E104F104C9F0C0F09C
:1015400062E17AE780E090E0A50194010E94CD106D
:1015500069017A01F1E0CF1AD108E108F1082FEF13
:10156000C216D104E104F10409F020F484E00CCFA8
:1015700083E00ACF89819A81AB81BC812AE0B5954D
:10158000A795979587952A95D1F76C017D01E1E0A4
:10159000CE1AD108E108F108F6CE0F900F900F9007
:1015A0000F90DF91CF911F910F91FF90EF90DF90FF
:1015B000CF90BF90AF909F908F907F906F905F90F3
:1015C0004F903F9008956FEE8AE591E00E940202ED
:1015D0006FEE8AE591E00E9402026FEE8AE591E0EB
:1015E0000E9402020C94F306CF92DF92EF92FF92D8
:1015F0000F931F93CF93DF9300D000D0CDB7DEB70A
:101600009FB7F894C0902E01D0902F01E090300148
:10161000F09031019FBF082F10E08AE591E04983E7
:101620005A836B837C830E94180249815A816B81A3
:101630007C8180179107A4F42FB7F89480912E0134
:1016400090912F01A0913001B09131012FBF8C19E1
:101650009D09AE09BF0984179507A607B707E8F2E9
:101660008AE591E00E9418028017910724F40E94F5
:10167000E30A80E001C081E00F900F900F900F907F
:10168000DF91CF911F910F91FF90EF90DF90CF905E
:101690000895EAE5F1E01382128288EE93E0A0E07B
:1016A000B0E084839583A683B78382E191E0918340
:1016B00080838FEF9FEF958784870895789484B512
:1016C000826084BD84B5816084BD85B5826085BD3E
:1016D00085B5816085BD80916E00816080936E00CC
:1016E00010928100809181008260809381008091BE
:1016F000810081608093810080918000816080936F
:10170000800080919100826080939100809191008F
:10171000816080939100809190008160809390001F
:101720008091C10084608093C1008091C10082607B
:101730008093C1008091C10081608093C10080913D
:10174000C30081608093C3008091C0008260809359
:10175000C0008091C20081608093C20080917A00B5
:10176000846080937A0080917A00826080937A000E
:1017700080917A00816080937A0080917A008068FD
:1017800080937A001092150210925901109258011C
:101790008091D70081608093D70080EA8093D80041
:1017A00089B5806189BD89B5826089BD09B400FEB3
:1017B000FDCF61E070E080E090E00E94EA0580915A
:1017C000D8008F7C80618093D8008091E000807F7A
:1017D0008093E0008091E1008E7E8093E1008DE0B7
:1017E0008093E200559A209AEEEFFFE7859194915D
:1017F0008B3F9C4D19F481E0809357018FEF9FEF51
:101800009093670180936601C0910B016AE070E0DC
:1018100080E090E00E94EA05CC23B1F3CFEFD0E066
:10182000AEEEEA2EA1E0FA2EB0E0CB2EB0E0DB2E39
:10183000E4EDF1E0119262E0E431F607D9F78AE5D0
:1018400091E00E9418020497D0F38AE591E00E948B
:10185000B7028093D3018F3F09F062C48AE591E01B
:101860000E94B7028093D3018E3F09F059C48AE5E4
:1018700091E00E94B7028093D3018D3F09F050C4DC
:101880008AE591E00E94B7028093D3018C3F09F072
:1018900047C46CEF8AE591E00E9402026DEF8AE591
:1018A00091E00E9402026EEF8AE591E00E9402023E
:1018B0006FEF8AE591E00E9402020E94F3064AEF70
:1018C00050E060E070E083E00E94F40A882309F4AD
:1018D00027C48AE591E00E94B7028B3F910509F089
:1018E0001FC48AE591E00E94B7028093D2018AE585
:1018F00091E00E94B7028093D101682F8AE591E0C0
:101900000E9402026091D2018AE591E00E940202E7
:101910006BEF8AE591E00E9402020E94F30680913B
:10192000D10148EE53E060E070E08C5F0E94F40A61
:10193000882309F4F5C3F4EDAF2EF1E0BF2E8091BA
:10194000D10190E09C012D5F3F4FA501445D5140C6
:101950002417350744F08AE591E00E94B702D501CB
:101960008D935D01ECCFFC01EC52FE4F82818093A0
:10197000D001F901EC52FE4F80818093CF0148EEF7
:1019800053E060E070E081E00E94F40A882309F4EB
:10199000C7C38AE591E00E94B7028A3F910509F02A
:1019A000BFC34091D101A42EB12CB2E0AB0EB11C4B
:1019B000E4ED8E2EE1E09E2EE0E0F0E020E030E06D
:1019C000C401845D91408A159B0590F4D4018D91EA
:1019D0004D01B901680F711DCB01BE010E94971026
:1019E0009C018E0F9F1FBE010E949710FC01E8CF43
:1019F000FE2FEE272E2B3F2B3093CE012093CD01CF
:101A0000F901FF27F093CC01E093CB01232F33277B
:101A10003093CA012093C901C9018E0F9F1FBE01D7
:101A20000E9497109E01281B390B3093C801209308
:101A3000C701C9018E0F9F1FBE010E949710BE01F2
:101A4000681B790B7093C6016093C5018091D0012A
:101A500090E02817390709F061C38091CF0190E029
:101A60006817790709F05AC3E091D2018091D40137
:101A7000E81354C38091D501481350C38E2F90E0D2
:101A8000FC013197E531F10508F048C3EB59FF4FF0
:101A90000C94EC1069EF8AE591E00E94020263E089
:101AA0008AE591E00E94020262E08AE591E00E94EC
:101AB000020261E08AE591E00E94020262E051C008
:101AC0008091D601282F30E03093C4012093C301C8
:101AD0000E948A079093C2018093C10169EF8AE551
:101AE00091E00E94020263E08AE591E00E94020216
:101AF00064E08AE591E00E9402026091C3012BC07C
:101B00008091D601282F30E03093C0012093BF018F
:101B10002091D70130E03093C2012093C1012115FB
:101B2000310511F460E004C02130310519F461E0A1
:101B30000E94B30769EF8AE591E00E94020263E028
:101B40008AE591E00E94020266E08AE591E00E9447
:101B500002026091BF018AE591E00E940202609159
:101B6000C1018AE591E00E9402020E94F306D8C2F8
:101B70008091D601282F30E03093C0012093BF011F
:101B80002091D70130E03093C2012093C10121158B
:101B9000310511F460E009C02130310511F462E033
:101BA00004C02230310519F461E00E94E30769EFB7
:101BB0008AE591E00E94020263E08AE591E00E94DA
:101BC000020268E0C2CFE091D6018E2F90E09093A0
:101BD000BE018093BD01E23108F0E251F0E0E35F25
:101BE000FD4FE49120917B00E3FB002700F910E01A
:101BF000C80155E0880F991F5A95E1F7922F9F7DF4
:101C0000892B80937B00E77080910D0170E4879FA2
:101C1000C0011124E82BE0937C0080917A0080645D
:101C200080937A0080917A0086FDFCCF80917800C5
:101C30002091790090E0922B9093BC018093BB019E
:101C400069EF8AE591E00E94020264E08AE591E092
:101C50000E9402026AE08AE591E00E94020260911D
:101C6000BD018AE591E00E9402026091BC018AE513
:101C700091E00E9402026091BB0173CF7090D60187
:101C8000872C912C9092BA018092B9016090D70173
:101C9000A62CB12CB092B801A092B70161E0872DBB
:101CA0000E94E307A114B10409F481C08FEFA816C4
:101CB000B10409F47EC0F401E151FE4FE4914E2FCE
:101CC00050E0FA013197EF30F10508F06CC0E658AA
:101CD000FF4F0C94EC1084B5806884BD67BC6DC068
:101CE00084B5806284BD68BC68C0809180008068D3
:101CF00080938000B0928900A09288005EC080919D
:101D00008000806280938000B0928B00A0928A0055
:101D100054C080918000886080938000B0928D00D4
:101D2000A0928C004AC080919000806880939000BF
:101D3000B0929900A092980040C08091900080627B
:101D400080939000B0929B00A0929A0036C0809140
:101D50009000886080939000B0929D00A0929C00BB
:101D60002CC08091C00080688093C0008091C0002A
:101D70008F7B8093C0006092CF001FC08091C00015
:101D800080628093C0006092D00017C08091C20032
:101D900088608093C2008091C2008B7F8093C200D4
:101DA0006092D2000AC0A0E8AA16B10414F460E060
:101DB00001C061E0872D0E94B30769EF8AE591E0D9
:101DC0000E94020263E08AE591E00E9402026CE058
:101DD0008AE591E00E9402026091B9018AE591E0F2
:101DE0000E9402026091B701BCCE8091D601282FDB
:101DF00030E03093C0012093BF016091D70170E0C3
:101E0000762F66279091D801690F711D7093B601E6
:101E10006093B5012091DB0130E0322F22279091B1
:101E2000DC01290F311D032E000C440B550B2093B0
:101E3000B1013093B2014093B3015093B401211525
:101E400031054105510519F420E030E0A9010E9457
:101E50001F0869EF8AE591E00E94020261E08AE5CD
:101E600091E00E9402026EE07CCE8091D601282F84
:101E700030E03093C0012093BF0190910C01981382
:101E800020C0F70194912FEF20930C01913071F055
:101E900050F0933089F09430A1F4909172009F7BC0
:101EA000909372000EC010926E000BC090916F0064
:101EB0009D7F90936F0005C0909171009D7F9093DE
:101EC000710060E00E94B30769EF8AE591E00E942B
:101ED000020261E08AE591E00E94020260E141CEE7
:101EE0008091D60190E09093B0018093AF0100976C
:101EF00011F481E00CC08130910541F082309105F0
:101F000011F482E004C08330910521F483E08093D2
:101F10000D0104C0049711F410920D0169EF8AE5D8
:101F200091E00E94020262E08AE591E00E940202D2
:101F300062E18AE591E00E9402026091AF0111CE58
:101F40008090D601882D90E09093C0018093BF01CE
:101F50009090D701892D90E09093AE018093AD01D0
:101F60008091D8018093AC01A090D901A092AB01DF
:101F7000811142C0612C712CB12CB501062C02C01C
:101F8000759567950A94E2F761707727882D0E940E
:101F9000B30761E0892D0E94B30760E0892D0E949C
:101FA000B307FFEF6F1A7F0A28E06216710429F762
:101FB00069EF8AE591E00E94020265E08AE591E01E
:101FC0000E94020264E18AE591E00E9402026091AF
:101FD000BF018AE591E00E9402026091AD018AE5AD
:101FE00091E00E9402026091AC018AE591E00E94BA
:101FF00002026091AB01B5CD8130D1F697E0692E38
:10200000712CB12CB501062C02C0759567950A9408
:10201000E2F761707727882D0E94B30761E0892D70
:102020000E94B30760E0892D0E94B30761E0661A41
:10203000710840F7BDCF7090D601872D90E0909346
:10204000C0018093BF01B090D7018B2D90E0909399
:10205000AE018093AD018091D8018093AC018111D4
:102060001CC0812C912CA12C61E08B2D0E94B30708
:10207000872D0E948A07082C01C0880F0A94EAF76E
:10208000A82A60E08B2D0E94B3078FEF881A980A68
:10209000A8E08A16910441F71BC08130D9F487E08B
:1020A000882E912CA12C61E08B2D0E94B307872DE7
:1020B0000E948A07082C01C0880F0A94EAF7A82A10
:1020C00060E08B2D0E94B307B1E08B1A910858F79E
:1020D000A092AA0169EF8AE591E00E94020265E000
:1020E0008AE591E00E94020266E18AE591E00E94A1
:1020F00002026091BF018AE591E00E9402026091B4
:10210000AD018AE591E00E9402026091AC018AE58E
:1021100091E00E9402026091AA0123CD0E94E30A8D
:10212000C114D10409F484CB0E94000081CBAA1B06
:10213000BB1B51E107C0AA1FBB1FA617B70710F0B2
:10214000A61BB70B881F991F5A95A9F780959095E4
:10215000BC01CD010895A1E21A2EAA1BBB1BFD01F3
:102160000DC0AA1FBB1FEE1FFF1FA217B307E40776
:10217000F50720F0A21BB30BE40BF50B661F771FCE
:10218000881F991F1A9469F76095709580959095AE
:102190009B01AC01BD01CF010895052E97FB1EF4F4
:1021A00000940E94E41057FD07D00E94AB1007FC7A
:1021B00003D04EF40C94E410509540953095219541
:1021C0003F4F4F4F5F4F0895909580957095619563
:1021D0007F4F8F4F9F4F0895EE0FFF1F0590F49193
:1021E000E02D09940E94FD10A59F900DB49F900DC5
:1021F000A49F800D911D11240895A29FB001B39F4B
:10220000C001A39F700D811D1124911DB29F700DFF
:0C221000811D1124911D0895F894FFCF4A
:10221C00FFFFFFFF00E1000000000000FF010000D5
:10222C000000020224068F025B021802B70293021E
:08223C0000C1808100000000D8
:00000001FF
