:100000000C9414010C943C010C943C010C943C01A4
:100010000C943C010C943C010C943C010C943C016C
:100020000C943C010C943C010C94DD020C945D0397
:100030000C943C010C943C010C943C010C943C014C
:100040000C943C010C943C010C943C010C943C013C
:100050000C94FB060C943C010C943C010C94B106EE
:100060000C943C010C943C010C943C010C943C011C
:100070000C943C010C943C010C943C010C943C010C
:100080000C948D050C943C010C943C010C943C01A7
:100090000C943C010C943C010C943C010C943C01EC
:1000A0000C943C010C943C010C943C01D207D50704
:1000B000C407C807CE07F607F607F607D907DD0716
:1000C000E107E707EB07F607F107040EBE111A0E6A
:1000D000BE113A0EBE11720EBE119D0EBE11F80E6B
:1000E000BE11AC0FBE11EC0FBE112710BE11571080
:1000F000BE11D210BE114511BE119811BE11A6112C
:10010000230F280F2D0F370F410F8B0F8B0F8B0FE6
:100110004B0F550F5F0F690F760F8B0F7E0F00008F
:100120000000240027002A002D00300000000000FD
:100130002300260029002C002F0004080201104093
:100140008040102040804080080204018040201040
:1001500002011080102040402000000000250028EF
:10016000002B002E003100040404040403040502E3
:100170000202020403020202020606060606060442
:10018000040202020404080B000202020100090436
:1001900000000102020000052400100105240101F5
:1001A000010424020605240600010705810310004E
:1001B0004009040100020A00000007050202400095
:1001C0000007058302400000040309041201000235
:1001D000EF0201404F1B0692000101020301537020
:1001E00061726B46756E00537061726B46756E205E
:1001F00050726F204D6963726F00030000000200AF
:10020000090F0000030401000C00000000000000C2
:1002100000000000000000000007060504010008BF
:100220000A0B0C0D0900B60B11241FBECFEFDAE04C
:10023000DEBFCDBF11E0A0E0B1E0E6E8F4E202C02D
:1002400005900D92A832B107D9F722E0A8E2B1E0FB
:1002500001C01D92A334B207E1F711E0C4E1D1E07F
:1002600004C02197FE010E941C12C331D107C9F7B7
:100270000E94CB0B0C9441120C940000409156014B
:100280005091570120915401309155014217530765
:10029000B4F49091E8009570E1F39091E80092FD3C
:1002A00019C08093F10080915601909157010196F9
:1002B0008F739927892B19F48EEF8093E800809132
:1002C00056019091570101969093570180935601E2
:1002D00081E0089580E00895CF92DF92EF92FF923F
:1002E0000F931F93CF93DF931F92CDB7DEB7182FD5
:1002F000062FE42E862F880F8E5F99830E943E0181
:1003000083E00E943E01F12EC12E9981D92E8C2DC1
:100310008F19801798F4F601E7FE02C0849101C09E
:1003200080810E943E01182F80E00E943E018123BF
:10033000FFEFCF1ADF0A8111EACF01C081E00F90F1
:10034000DF91CF911F910F91FF90EF90DF90CF90B1
:100350000895DF92EF92FF920F931F93CF93DF9355
:10036000D82E8A017B01E40EF51EEB01CE15DF05C8
:1003700071F0D7FE03C0FE01849101C088810E9404
:100380003E0121968111F2CF8FEF9FEF01C0C8018E
:10039000DF91CF911F910F91FF90EF90DF90089523
:1003A000615030F02091F100FC0120830196F8CFDC
:1003B000289884E680931A020895CF92DF92EF92F4
:1003C000FF920F931F93CF93DF936C017A018B0100
:1003D000C0E0D0E0CE15DF0589F0D8016D918D0128
:1003E000D601ED91FC910190F081E02DC6010995B7
:1003F000892B11F47E0102C02196ECCFC701DF9159
:10040000CF911F910F91FF90EF90DF90CF900895C3
:10041000CF93DF931F92CDB7DEB76983DC01ED91F7
:10042000FC910280F381E02D41E050E0BE016F5F5E
:100430007F4F09950F90DF91CF910895FC0184853E
:10044000958597FD0BC09FB7F89482E08093E900F3
:100450008091F2009FBF90E0019608959FB7F894B5
:1004600082E08093E9008091F2009FBF90E00895C0
:10047000089580E090E008953FB7F89480913401AA
:1004800090913501A0913601B091370126B5A89B16
:1004900005C02F3F19F00196A11DB11D3FBFBA2F16
:1004A000A92F982F8827820F911DA11DB11DBC0176
:1004B000CD0142E0660F771F881F991F4A95D1F73B
:1004C00008950E943C120C9460070F931F93CF93E2
:1004D000DF931F92CDB7DEB782E0898342E450E01C
:1004E00066E871E080E80E94A9010E94A607DC018D
:1004F00012960D911C9113970115110569F0D80101
:10050000ED91FC910280F381E02DBE016F5F7F4F82
:10051000C801099597FF07C089810F90DF91CF919E
:100520001F910F910895F80100851185E5CF0E9474
:10053000950790E008950F931F93CF93DF931F9239
:10054000CDB7DEB78C01FC018485958597FF0EC081
:10055000CE0101960E946B07019719F4298130E0C2
:1005600002C02FEF3FEFF80135872487F80184851B
:1005700095850F90DF91CF911F910F910895CF93A3
:10058000DF931F92CDB7DEB7FC018485958597FD7B
:1005900005C02FEF3FEF358724870BC0CE010196B2
:1005A0000E946B07019719F4898190E002C08FEFD8
:1005B0009FEF0F90DF91CF9108951F920F920FB68A
:1005C0000F9211242F933F934F935F936F937F93D9
:1005D0008F939F93AF93BF93CF93EF93FF93C0916C
:1005E000E1008091E100837F8093E100C3FF0FC0B1
:1005F0001092E90081E08093EB001092EC0082E31E
:100600008093ED0010921B0288E08093F000C2FFFF
:1006100018C00E94600780915801882339F08091AA
:100620005801815080935801882389F180911A02E2
:10063000882339F080911A02815080931A0288230E
:1006400041F1C4FF10C08091E2008E7E81608093F2
:10065000E2008091E1008F7E8093E10080915A0159
:100660008E7E806111C0C0FF16C08091E2008E7E38
:1006700080618093E2008091E1008E7E8093E100B2
:1006800080915A018E7E816080935A0104C05D9AE8
:10069000CDCF289AD6CFFF91EF91CF91BF91AF9157
:1006A0009F918F917F916F915F914F913F912F918A
:1006B0000F900FBE0F901F9018951F920F920FB6BC
:1006C0000F921124CF92DF92EF92FF920F931F931C
:1006D0002F933F934F935F936F937F938F939F934A
:1006E000AF93BF93EF93FF93CF93DF93CDB7DEB775
:1006F0006C97DEBFCDBF1092E9008091E80083FFC8
:10070000EDC168E0CE0145960E94D00182EF809352
:10071000E8008D8987FF05C09091E80090FFFCCF2D
:1007200003C09EEF9093E800982F907609F0C6C022
:100730009E892F89188D91110CC0803829F48091E1
:100740005B018093F10002C01092F1001092F10061
:1007500048C1422F50E0512B913051F4811141C1D9
:100760004130510509F03DC180915B018D7F0BC087
:10077000933061F4811135C14130510509F031C127
:1007800080915B01826080935B012BC1953041F4C5
:100790008091E80080FFFCCF20682093E30021C116
:1007A000963009F05FC0EB8CFC8C1092E90010923F
:1007B000570110925601123091F510925501109286
:1007C00054010E94650299E0BE016F5F7F4FDB011B
:1007D000E92F1D92EA95E9F799831A8391E09E83A8
:1007E00090EA98879AEF99872091560130915701A6
:1007F000275F3F4F3C832B838D831092E90010923B
:10080000570110925601F0925501E092540149E0CF
:1008100050E080E00E94A9010E946502E2C0F092CF
:100820005501E09254010E94A607DC011296ED905A
:10083000FC901397E114F10409F4C0C0D701ED91C5
:10084000FC910480F581E02DBE016B5E7F4FC701F6
:100850000995009719F00CF0C4C0C7C0F701E084F7
:10086000F184E8CF973009F4C0C0983021F481E0DA
:100870008093F100B6C0993009F0B3C0837009F0DD
:10088000B4C0E1E2F1E081E021E036E39081992318
:1008900061F08093E9002093EB0091919093EC003C
:1008A0003093ED008F5F873089F78EE78093EA0001
:1008B0001092EA008F8980931B0293C08B8D9C8DD0
:1008C0001092E90010925701109256019093550131
:1008D00080935401898D811156C08E899D89913AEA
:1008E00059F4813209F081C047E050E064E071E0E2
:1008F00080E00E94A90175C0913209F076C0833270
:1009000089F4888D90E0982F88272F89822BA0E08A
:10091000B0E08093000190930101A0930201B09395
:1009200003015FC0803269F48091E80082FFFCCF50
:1009300067E084E091E00E94D0018BEF8093E800B3
:1009400006C0823209F04DC08F8980930B018091DF
:100950005901882319F0EEEFFAE002C0E0E0F8E078
:100960008091040190910501A0910601B0910701C9
:10097000803B9440A105B10509F07BC080910B013B
:1009800080FF93C076C00E94A607DC0112960D91ED
:100990001C9113970115110541F1D801ED91FC91BE
:1009A0000190F081E02DBE016B5E7F4FC80109957B
:1009B000811117C0F80100851185ECCF113009F4C1
:1009C0004EC0133091F48F89882309F445C08230DA
:1009D00081F440E862E187EE91E00E946C01882397
:1009E00021F08EEF8093E80079C081E28093EB00E4
:1009F00075C0813029F440E868E08EED91E0EDCFDC
:100A0000833099F70E94A607DC011296ED90FC90C6
:100A100013978E010F5F1F4F6801E114F10479F005
:100A2000D701ED91FC910680F781E02DB801C70157
:100A30000995080F111DF701E084F184EECFD8016C
:100A40001C92F60101900020E9F73197BF016C1963
:100A50007D0940E0C601C1CF68EC71E002C06CECDA
:100A600071E06115710509F2FB01449150E080E8E5
:100A700040CF0FB6F894A89580916000886180936C
:100A80006000109260000FBEA895EE3F2AE0F207CA
:100A900039F08091FE0A9091FF0A91838083A1CF63
:100AA0001092FF0A1092FE0A9CCFEE3F8AE0F807F0
:100AB00031F0808191819093FF0A8093FE0A87E74D
:100AC00097E7918380839BE088E10FB6F894A8951F
:100AD000809360000FBE9093600083CF6C960FB63A
:100AE000F894DEBF0FBECDBFDF91CF91FF91EF91A4
:100AF000BF91AF919F918F917F916F915F914F9136
:100B00003F912F911F910F91FF90EF90DF90CF9029
:100B10000F900FBE0F901F9018951F920F920FB657
:100B20000F9211242F933F938F939F93AF93BF9373
:100B3000EF93FF938091500190915101A091520148
:100B4000B0915301892B8A2B8B2B51F180914F014E
:100B5000E0914D01F0914E01908189278083809131
:100B6000500190915101A0915201B091530118167A
:100B700019061A061B064CF58091500190915101FF
:100B8000A0915201B09153010197A109B10980933D
:100B9000500190935101A0935201B093530115C09D
:100BA000809171008D7F8093710090914F01E09151
:100BB0004D01F0914E018081282F30E0892F90E087
:100BC00080959095822393238083FF91EF91BF912D
:100BD000AF919F918F913F912F910F900FBE0F90EA
:100BE0001F9018958F929F92AF92BF92CF92DF92F3
:100BF000EF92FF926B017C010E943C024B015C0171
:100C0000C114D104E104F104F1F00E943C02DC01C2
:100C1000CB0188199909AA09BB09883E9340A1050F
:100C2000B10570F321E0C21AD108E108F10888EE9D
:100C3000880E83E0981EA11CB11CC114D104E104EC
:100C4000F10419F7DDCFFF90EF90DF90CF90BF90C8
:100C5000AF909F908F9008958F929F92AF92BF9286
:100C6000CF92DF92EF92FF920F931F93CF93DF9378
:100C70005C016B017A0180910B01882309F45BC050
:100C800080911B02882309F456C080915A0180FF8D
:100C900005C08091E00082608093E000E70110E0F1
:100CA0000AEF83E0882E9AE3992E2097D9F10E94CB
:100CB000950781110AC0015009F43DC061E070E060
:100CC00080E090E00E94F205F0CF282F30E0C217BC
:100CD000D3070CF48C2F4FB7F8948092E9009091D1
:100CE000E80095FF1DC0282F30E0C21BD30BF60192
:100CF000982F915020F081918093F100FACFC20E8D
:100D0000D31E112319F09092E80009C08091E800E9
:100D100085FD06C09092E80011E0209709F010E0F0
:100D20004FBFC3CF1111C3CF5D9884E680935801A4
:100D30001E141F0444F081E090E0F5019383828348
:100D400080E090E001C0C701DF91CF911F910F912A
:100D5000FF90EF90DF90CF90BF90AF909F908F90DB
:100D600008951F920F920FB60F9211242F933F9365
:100D70008F939F93AF93BF938091300190913101F6
:100D8000A0913201B091330130912F0123E0230F64
:100D90002D3720F40196A11DB11D05C026E8230FB3
:100DA0000296A11DB11D20932F01809330019093D5
:100DB0003101A0933201B0933301809134019091BD
:100DC0003501A0913601B09137010196A11DB11DE9
:100DD0008093340190933501A0933601B09337018D
:100DE000BF91AF919F918F913F912F910F900FBE27
:100DF0000F901F9018951F920F920FB60F9211240B
:100E00002F933F934F935F936F937F938F939F9312
:100E1000AF93BF93EF93FF9380E280938000109293
:100E20006F0010923502E0912D01F0912E01309764
:100E300011F078940995FF91EF91BF91AF919F9137
:100E40008F917F916F915F914F913F912F910F9073
:100E50000FBE0F901F9018958091350281112EC002
:100E600090E29093800090914202992319F01092A1
:100E7000420202C0299A2998ECE1F2E090819EBDDD
:100E80000DB407FEFDCF91819EBD0DB407FEFDCFD1
:100E90003396DF0111979C919EBD0DB407FEFDCFE7
:100EA00092E0E433F90750F391E09093350220EAA1
:100EB00020938000B09A90936F00089581E0089588
:100EC00083E08093E9008091F200882319F08AE39F
:100ED0008093E8000895FC0180911B02811103C0FA
:100EE0008FEF9FEF08959FB7F89482E08093E90019
:100EF0002091F20030E01216130614F421E030E0E5
:100F00002115310559F0289884E680931A028091C2
:100F1000F10080838091F200882319F09FBFC901FE
:100F200008958BE68093E800F9CF2FB7F89483E01B
:100F30008093E9009091E800892F807295FF04C0AA
:100F40009091F20080E4891B2FBF089580913A02AE
:100F500081110DC082E08093360284E080933702D5
:100F6000109239021092380281E080933A0286E3AF
:100F700092E0089590E0FC013197EF30F105B0F573
:100F8000EA5AFF4F0C941C12809180008F7703C0A7
:100F9000809180008F7D80938000089580918000F3
:100FA000877FF9CF84B58F7702C084B58F7D84BDEC
:100FB0000895809190008F7707C0809190008F7D79
:100FC00003C080919000877F809390000895809166
:100FD000C0008F7703C08091C0008F7D8093C000D8
:100FE00008958091C200877F8093C2000895CF93B7
:100FF000DF93282F30E0F901E550FE4F8491F9018D
:10100000E65CFE4FD491F901E959FE4FC491CC231F
:1010100091F081110E94BA07EC2FF0E0EE0FFF1F54
:10102000E45DFE4FA591B491EC91ED2381E090E059
:1010300021F480E002C080E090E0DF91CF9108953C
:101040001F93CF93DF93282F30E0F901E550FE4F37
:101050008491F901E65CFE4FD491F901E959FE4F04
:10106000C491CC23C9F0162F81110E94BA07EC2F2E
:10107000F0E0EE0FFF1FE75AFE4FA591B4918FB736
:10108000F894111105C09C91ED2FE095E92302C061
:10109000EC91ED2BEC938FBFDF91CF911F910895D1
:1010A000CF93DF9390E0FC01E65CFE4F2491FC01BE
:1010B000E959FE4F8491882361F190E0880F991FD0
:1010C000FC01E25EFE4FC591D491FC01E75AFE4F50
:1010D000A591B491611109C09FB7F89488812095BA
:1010E00082238883EC912E230BC0623061F49FB77A
:1010F000F8943881822F809583238883EC912E2B5E
:101100002C939FBF06C08FB7F894E8812E2B2883BD
:101110008FBFDF91CF9108953F924F925F926F9270
:101120007F928F929F92AF92BF92CF92DF92EF9277
:10113000FF920F931F93CF93DF9300D000D0CDB7D2
:10114000DEB729013A0190910C01981721F09F3FD9
:1011500009F090C204C0EAEFF1E03490AEC0809391
:101160000C01EAEFF1E0E491EF3F09F483C2E130D2
:1011700009F452C01CF5E1119FC014BC15BC94B514
:10118000926094BD95B5916095BD282F30E0F9012E
:10119000E959FE4FE491F0E0EE0FFF1FE75AFE4FD2
:1011A000459154915093400140933F01F901E65C11
:1011B000FE4FE491E0933E01312C81C0E33009F40D
:1011C00053C0E43009F078C01092C0001092C10002
:1011D0009091C10098609093C1009091C10091607E
:1011E0009093C100482F50E0FA01E959FE4FE49175
:1011F000F0E0EE0FFF1FE75AFE4F25913491309338
:101200003A0120933901FA01E65CFE4FE491E09344
:101210003801B4E03B2E53C0109280001092810040
:1012200090918100986090938100909181009160ED
:1012300090938100282F30E0F901E959FE4FE491A5
:10124000F0E0EE0FFF1FE75AFE4F45915491509387
:101250003D0140933C01F901E65CFE4FE491E093CF
:101260003B01332433942BC01092900010929100D4
:10127000909191009860909391009091910091606D
:1012800090939100282F30E0F901E959FE4FE49145
:10129000F0E0EE0FFF1FE75AFE4F45915491509337
:1012A0004E0140934D01F901E65CFE4FE491E0935D
:1012B0004F0103E0302E03C03E2E37FCDBC18B0113
:1012C00061E00E9450084801A12CB12C832D8D7F34
:1012D00009F0CCC060E072E18AE790E0A5019401DA
:1012E0000E94FD1129833A834B835C8369017A0153
:1012F00021E0C21AD108E108F1088FEFC816D10425
:10130000E104F10409F008F44BC060E472E48FE0FA
:1013100090E0A50194010E94FD1169017A0191E01C
:10132000C91AD108E108F108E2E03E121FC0FFEF40
:10133000CF16D104E104F10409F008F4F4C060E927
:1013400070ED83E090E0A50194010E94FD11690118
:101350007A0181E0C81AD108E108F1089FEFC916A7
:10136000D104E104F10409F010F5DDC0EFEFCE1671
:10137000D104E104F104B1F0A8F068E478EE81E072
:1013800090E0A50194010E94FD1169017A01F1E04C
:10139000CF1AD108E108F108332009F437C12CC174
:1013A00081E001C082E0332009F45BC0BCC068E486
:1013B00078EE81E090E0A50194010E94FD116901A1
:1013C0007A01F1E0CF1AD108E108F1082FEFC21637
:1013D000D104E104F10409F008F4A5C064E274EF5B
:1013E00080E090E0A50194010E94FD1169017A015D
:1013F00081E0C81AD108E108F1089FEFC916D104AD
:10140000E104F10409F008F48EC062E17AE780E0BB
:1014100090E0A50194010E94FD1169017A0181E02B
:10142000C81AD108E108F1089FEFC916D104E104F8
:10143000F10409F008F4DEC089819A81AB81BC8196
:101440004AE0B595A795979587954A95D1F76C0190
:101450007D01E1E0CE1AD108E108F108311063C046
:1014600085E095B5987F892B85BD5DC060E072E110
:101470008AE790E0A50194010E94FD1169017A01BB
:10148000F1E0CF1AD108E108F108C114D10421E03C
:10149000E206F10488F068E478EE81E090E0A501CE
:1014A00094010E94FD1169017A0181E0C81AD108F6
:1014B000E108F10883E001C081E091E039120FC03A
:1014C00090918100987F892B809381004114510471
:1014D0006104710469F52FEF3FEFA90157C0E3E004
:1014E0003E120FC090919100987F892B80939100BC
:1014F0004114510461047104D9F42FEF3FEFA901A5
:1015000057C0F4E03F120FC09091C100987F892B23
:101510008093C100411451046104710449F42FEF18
:101520003FEFA90157C0411451046104710471F0E7
:10153000D801AA0FBB1FA30192010E94221228EE1C
:1015400033E040E050E00E94DB1103C02FEF3FEF9B
:10155000A90181E03816D1F083158CF031108AC0D2
:10156000C7BC2093490130934A0140934B015093EB
:101570004C0180916E00826080936E007BC093E08E
:101580003916B1F0E4E03E1629F174C0D09289001A
:10159000C092880020934501309346014093470153
:1015A0005093480180916F00826080936F0062C009
:1015B000D0929900C092980020935001309351012D
:1015C0004093520150935301809171008260809347
:1015D000710050C0C092CF0020934101309342016E
:1015E0004093430150934401809172008064809342
:1015F000720040C086E0D7CEEFEFCE16D104E104F2
:10160000F10411F008F001CF84E0CDCE8FEFC816C1
:10161000D104E104F104C9F0C0F062E17AE780E0AE
:1016200090E0A50194010E94FD1169017A01F1E0A9
:10163000CF1AD108E108F1082FEFC216D104E10456
:10164000F10409F020F484E00CCF83E00ACF898113
:101650009A81AB81BC812AE0B595A795979587952E
:101660002A95D1F76C017D01E1E0CE1AD108E1089D
:10167000F108F6CE0F900F900F900F90DF91CF9161
:101680001F910F91FF90EF90DF90CF90BF90AF90A0
:101690009F908F907F906F905F904F903F900895B4
:1016A0006FEE8CE591E00E9408026FEE8CE591E010
:1016B0000E9408026FEE8CE591E00E9408020C94F3
:1016C0006007CF92DF92EF92FF920F931F93CF9319
:1016D000DF9300D000D0CDB7DEB79FB7F894C090AD
:1016E0003001D0903101E0903201F09033019FBF82
:1016F000082F10E08CE591E049835A836B837C834B
:101700000E941E0249815A816B817C81801791075A
:10171000A4F42FB7F8948091300190913101A091F9
:101720003201B09133012FBF8C199D09AE09BF0959
:1017300084179507A607B707E8F28CE591E00E94A9
:101740001E028017910724F40E94500B80E001C014
:1017500081E00F900F900F900F90DF91CF911F912C
:101760000F91FF90EF90DF90CF900895ECE5F1E0BE
:101770001382128288EE93E0A0E0B0E08483958328
:10178000A683B78382E191E0918380838FEF9FEFFF
:10179000958784870895789484B5826084BD84B5E4
:1017A000816084BD85B5826085BD85B5816085BD5C
:1017B00080916E00816080936E0010928100809114
:1017C000810082608093810080918100816080939C
:1017D00081008091800081608093800080919100E1
:1017E000826080939100809191008160809391004C
:1017F000809190008160809390008091C10084600E
:101800008093C1008091C10082608093C10080916B
:10181000C10081608093C1008091C300816080938A
:10182000C3008091C00082608093C0008091C2009C
:1018300081608093C20080917A00846080937A00F6
:1018400080917A00826080937A0080917A00816032
:1018500080937A0080917A00806880937A00109259
:101860001B0210925B0110925A018091D700816097
:101870008093D70080EA8093D80089B5806189BDC4
:1018800089B5826089BD09B400FEFDCF61E070E0DA
:1018900080E090E00E94F2058091D8008F7C80610A
:1018A0008093D8008091E000807F8093E000809159
:1018B000E1008E7E8093E1008DE08093E200559AF6
:1018C000209AEEEFFFE7859194918B3F9C4D19F4A0
:1018D00081E080935901259A269A3E9A2E9A229A5F
:1018E000219A209A299881E08DBD80E58CBDECE19C
:1018F000F2E0108211823396DF0111971C9232E0E0
:10190000E433F307B0F30E942C0780E28093800059
:1019100010926F00109235022D9A2D9880938000BE
:1019200080E18093810081E090E090938900809332
:10193000880082E090E090938B0080938A0080E0A2
:1019400090E2909387008093860082E880939000D5
:10195000109299001092980083E090E09093970085
:101960008093960089E1809391008091810081604D
:10197000809381000E942C078FEF9FEF9093690165
:1019800080936801C0910B016AE070E080E090E014
:101990000E94F205CC23B1F30FEF10E09AEFC92EAD
:1019A00091E0D92E20E0A22E20E0B22E8FE0782EFA
:1019B000EAEDF1E0119242E0EA31F407D9F78CE563
:1019C00091E00E941E020497D0F38CE591E00E9402
:1019D000BF028093D9018F3F09F0D2C48CE591E01A
:1019E0000E94BF028093D9018E3F09F0C9C48CE5E3
:1019F00091E00E94BF028093D9018D3F09F0C0C4DD
:101A00008CE591E00E94BF028093D9018C3F09F0E0
:101A1000B7C46CEF8CE591E00E9408026DEF8CE595
:101A200091E00E9408026EEF8CE591E00E940802AE
:101A30006FEF8CE591E00E9408020E9460074AEF78
:101A400050E060E070E083E00E94610B882309F4BD
:101A500097C48CE591E00E94BF028B3F910509F08D
:101A60008FC48CE591E00E94BF028093D8018CE581
:101A700091E00E94BF028093D701682F8CE591E02E
:101A80000E9408026091D8018CE591E00E94080252
:101A90006BEF8CE591E00E9408020E946007809144
:101AA000D70148EE53E060E070E08C5F0E94610B6C
:101AB000882309F465C4CAEDD1E08091D70190E094
:101AC0009C012D5F3F4FAE014A5D51402417350701
:101AD00034F08CE591E00E94BF028993EECFFC01C7
:101AE000E652FE4F82818093D601F901E652FE4F05
:101AF00080818093D50148EE53E060E070E081E0A2
:101B00000E94610B882309F43BC48CE591E00E949C
:101B1000BF028A3F910509F033C44091D701E42FF9
:101B2000F0E03296DAED8D2ED1E09D2EC0E0D0E0CF
:101B300020E030E0C4018A5D91408E179F0790F449
:101B4000D4018D914D01B901680F711DCB01B80110
:101B50000E94C7119C018C0F9D1FB8010E94C711E4
:101B6000EC01E8CFDC2FCC272C2B3D2B3093D4017C
:101B70002093D301F901FF27F093D201E093D10123
:101B8000232F33273093D0012093CF01C9018E0F2B
:101B90009F1FB8010E94C7119801281B390B309371
:101BA000CE012093CD01C9018E0F9F1FB8010E9465
:101BB000C711B801681B790B7093CC016093CB01FE
:101BC0008091D60190E02817390709F0D7C380919A
:101BD000D50190E06817790709F0D0C3E091D801EA
:101BE0008091DA01E813CAC38091DB014813C6C3B0
:101BF0008E2F90E0FC013197EB31F10508F0BEC368
:101C0000EB59FF4F0C941C1269EF8CE591E00E9498
:101C1000080263E08CE591E00E94080262E08CE536
:101C200091E00E94080261E08CE591E00E940802C8
:101C300062E051C08091DC01282F30E03093CA016E
:101C40002093C9010E94F7079093C8018093C701B0
:101C500069EF8CE591E00E94080263E08CE591E079
:101C60000E94080264E08CE591E00E940802609105
:101C7000C9012BC08091DC01282F30E03093C601D0
:101C80002093C5012091DD0130E03093C8012093FD
:101C9000C7012115310511F460E004C02130310580
:101CA00019F461E00E94200869EF8CE591E00E9440
:101CB000080263E08CE591E00E94080266E08CE592
:101CC00091E00E9408026091C5018CE591E00E94BC
:101CD00008026091C7018CE591E00E9408020E9411
:101CE00060074EC38091DC01282F30E03093C6019D
:101CF0002093C5012091DD0130E03093C80120938D
:101D0000C7012115310511F460E009C0213031050A
:101D100011F462E004C02230310519F461E00E9440
:101D2000500869EF8CE591E00E94080263E08CE5C1
:101D300091E00E94080268E0C2CFE091DC018E2FA2
:101D400090E09093C4018093C301E23108F0E25126
:101D5000F0E0E75EFD4FE49120917B00E3FBEE2491
:101D6000E0F8F12CC701A5E0880F991FAA95E1F7CB
:101D7000922F9F7D892B80937B00E77080910D01CE
:101D800070E4879FC0011124E82BE0937C008091D0
:101D90007A00806480937A0080917A0086FDFCCF7F
:101DA000809178002091790090E0922B9093C2016D
:101DB0008093C10169EF8CE591E00E94080264E024
:101DC0008CE591E00E9408026AE08CE591E00E94B7
:101DD00008026091C3018CE591E00E9408026091C5
:101DE000C2018CE591E00E9408026091C10173CFAD
:101DF0006090DC01862C912C9092C0018092BF01F2
:101E00005090DD01C52DD0E0D093BE01C093BD013F
:101E100061E0862D0E945008209709F47FC0CF3FD3
:101E2000D10509F47DC0F401E550FE4FE4914E2F39
:101E300050E0FA013197EF30F10508F06CC0E0583E
:101E4000FF4F0C941C1284B5806884BD57BC6CC0D5
:101E500084B5806284BD58BC67C080918000806872
:101E600080938000D0938900C09388005DC08091EA
:101E70008000806280938000D0938B00C0938A00A2
:101E800053C080918000886080938000D0938D0043
:101E9000C0938C0049C0809190008068809390002E
:101EA000D0939900C09398003FC0809190008062C9
:101EB00080939000D0939B00C0939A0035C080918E
:101EC0009000886080939000D0939D00C0939C0008
:101ED0002BC08091C00080688093C0008091C000BA
:101EE0008F7B8093C0005092CF001EC08091C000B5
:101EF00080628093C0005092D00016C08091C200D2
:101F000088608093C2008091C2008B7F8093C20062
:101F10005092D20009C0C038D10514F460E001C06D
:101F200061E0862D0E94200869EF8CE591E00E9417
:101F3000080263E08CE591E00E9408026CE08CE509
:101F400091E00E9408026091BF018CE591E00E943F
:101F500008026091BD01BFCE8091DC01282F30E0E6
:101F60003093C6012093C5016091DD0170E0762FAA
:101F700066279091DE01690F711D7093BC0160931B
:101F8000BB012091E10130E0322F22279091E20144
:101F9000290F311D032E000C440B550B2093B70164
:101FA0003093B8014093B9015093BA01211531051E
:101FB0004105510519F420E030E0A9010E948C0888
:101FC00069EF8CE591E00E94080261E08CE591E008
:101FD0000E9408026EE07FCE8091DC01282F30E065
:101FE0003093C6012093C50190910C01981320C035
:101FF000F60194912FEF20930C01913071F050F085
:10200000933089F09430A1F4909172009F7B90936B
:1020100072000EC010926E000BC090916F009D7FF9
:1020200090936F0005C0909171009D7F9093710017
:1020300060E00E94200869EF8CE591E00E940802B0
:1020400061E08CE591E00E94080260E144CE80915D
:10205000DC0190E09093B6018093B501009711F4F4
:1020600081E00CC08130910541F08230910511F47E
:1020700082E004C08330910521F483E080930D0158
:1020800004C0049711F410920D0169EF8CE591E002
:102090000E94080262E08CE591E00E94080262E181
:1020A0008CE591E00E9408026091B50114CE809009
:1020B000DC01882D90E09093C6018093C50190903B
:1020C000DD01892D90E09093B4018093B30180915C
:1020D000DE018093B201C091DF01C093B101811193
:1020E00042C0412C512CD0E0BE01042C02C0759599
:1020F00067950A94E2F761707727882D0E9420087F
:1021000061E0892D0E94200860E0892D0E9420084E
:10211000FFEF4F1A5F0A28E04216510429F769EFD2
:102120008CE591E00E94080265E08CE591E00E9458
:10213000080264E18CE591E00E9408026091C5010B
:102140008CE591E00E9408026091B3018CE591E07A
:102150000E9408026091B2018CE591E00E940802A1
:102160006091B101B8CD8130D1F657E0452E512CA8
:10217000D0E0BE01042C02C0759567950A94E2F781
:1021800061707727882D0E94200861E0892D0E94C8
:10219000200860E0892D0E94200831E0431A510890
:1021A00040F7BDCF6090DC01862D90E09093C60192
:1021B0008093C501C091DD018C2F90E09093B40114
:1021C0008093B3018091DE018093B20181111CC024
:1021D000812C912CD0E061E08C2F0E942008862D6C
:1021E0000E94F707082C01C0880F0A94EAF7D82B41
:1021F00060E08C2F0E9420086FEF861A960A78E024
:102200008716910441F71BC08130D9F447E0842E32
:10221000912CD0E061E08C2F0E942008862D0E9436
:10222000F707082C01C0880F0A94EAF7D82B60E062
:102230008C2F0E94200881E0881A910858F7D093CB
:10224000B00169EF8CE591E00E94080265E08CE541
:1022500091E00E94080266E18CE591E00E9408028C
:102260006091C5018CE591E00E9408026091B30184
:102270008CE591E00E9408026091B2018CE591E04A
:102280000E9408026091B00126CD2091DC01822FCE
:1022900090E09093AF018093AE013091DD01809189
:1022A000DE0190E0B0E13B9F800D911D11249093E1
:1022B000AD018093AC01E72DE21B2E2F33E0E39FAD
:1022C000F0011124F695E795E45EFD4F20FF05C06F
:1022D0002081207F922B90830CC09C0194E0369546
:1022E00027959A95E1F7208391819F708295807F51
:1022F000892B818369EF8CE591E00E94080264E0FC
:102300008CE591E00E94080268E18CE591E00E9472
:1023100008026091AE018CE591E00E940802609194
:10232000DD018CE591E00E9408026091DE01D3CCD2
:102330000E942C0769EF8CE591E00E94080261E0A1
:102340008CE591E00E9408026AE1C5CCECE1F2E084
:10235000108211823396DF0111971C9242E0E43320
:10236000F407B0F369EF8CE591E00E94080261E0A8
:102370008CE591E00E9408026CE1ADCC0E94500B0C
:10238000A114B10409F414CB0E9400000FCBAA1BC6
:10239000BB1B51E107C0AA1FBB1FA617B70710F050
:1023A000A61BB70B881F991F5A95A9F78095909582
:1023B000BC01CD010895A1E21A2EAA1BBB1BFD0191
:1023C0000DC0AA1FBB1FEE1FFF1FA217B307E40714
:1023D000F50720F0A21BB30BE40BF50B661F771F6C
:1023E000881F991F1A9469F760957095809590954C
:1023F0009B01AC01BD01CF010895052E97FB1EF492
:1024000000940E94141257FD07D00E94DB1107FCB4
:1024100003D04EF40C9414125095409530952195AC
:102420003F4F4F4F5F4F0895909580957095619500
:102430007F4F8F4F9F4F0895EE0FFF1F0590F49130
:10244000E02D09940E942D12A59F900DB49F900D30
:10245000A49F800D911D11240895A29FB001B39FE8
:10246000C001A39F700D811D1124911DB29F700D9D
:10247000811D1124911D089581E090E0F8940C9441
:062480004112F894FFCFA9
:10248600FFFFFFFF00E1000000000000FF01000069
:10249600000008022C06970263021E02BF029B027E
:0824A60000C18081000000006C
:1070000055C000006EC000006CC000006AC00000E7
:1070100068C0000066C0000064C0000062C00000DC
:1070200060C000005EC00000FCC400005AC0000048
:1070300058C0000056C0000054C0000052C00000FC
:1070400050C000005DC000004CC000004AC00000FD
:1070500048C0000046C0000044C0000042C000001C
:1070600040C000003EC000003CC000003AC000002C
:1070700038C0000036C0000034C0000032C000003C
:1070800030C000002EC000002CC000002AC000004C
:1070900028C0000026C0000024C0000022C000005C
:1070A00020C000001EC000001CC0000011241FBE34
:1070B000CFEFDAE0DEBFCDBF11E0A0E0B1E0E6E463
:1070C000FFE702C005900D92A43BB107D9F711E08C
:1070D000A4EBB1E001C01D92AD3CB107E1F74FD385
:1070E00030C78ECFF89410926F001092810081E02B
:1070F00085BF15BE47985D9A289A0C9400000895A4
:107100001F920F920FB60F9211242F938F939F937C
:10711000EF93FF9310928500109284008091B40148
:107120009091B501009741F001979093B50180933C
:10713000B401892B09F45D9A8091B6019091B70151
:10714000009741F001979093B7018093B601892B86
:1071500009F4289A8091BA019091BB01019690930D
:10716000BB018093BA01E0E0F0E0859194918F5FDC
:107170009F4F49F08091B8019091B9010196909389
:10718000B9018093B801FF91EF919F918F912F9159
:107190000F900FBE0F901F90189584E08093E90028
:1071A0000DC08091E8008B778093E80003C08EB318
:1071B000882351F08091E80082FFF9CF8091E800A8
:1071C00085FFEFCF8091F1000895982F83E08093A1
:1071D000E9008091E80085FD0DC08091E8008E7780
:1071E0008093E80003C08EB3882369F08091E800A3
:1071F00080FFF9CF9093F1005D9884E690E0909342
:10720000B5018093B40108954F925F926F927F927F
:107210008F929F92AF92BF92CF92DF92EF92FF92A6
:107220000F931F93CF93DF9384E08093E9008091C5
:10723000E80082FF57C2289884E690E09093B70157
:107240008093B601AADF182F853481F48CE49DE188
:107250009093B9018093B80107B600FCFDCFF9996E
:10726000FECF81E180935700E89503C0843519F47F
:1072700094DF8DE00DC28C34E1F38035D1F3843797
:1072800021F484E4A2DF80E003C2813611F489E5B1
:10729000FFC18134B1F481DF182F7FDF90E0880FC8
:1072A000991FAA2797FDA095BA2F312F330F20E001
:1072B000442737FD4095542F822B932BA42BB52BBD
:1072C000B8C1803711F483E5E3C1833549F4C0E0E8
:1072D000D1E089917ADF21E0C730D207D1F7D9C157
:1072E000863521F481E371DF80E3D2C1833731F445
:1072F00087E86BDF85E969DF8EE1CAC18536B9F4BD
:10730000E0E0F0E093E085E090935700E89507B661
:1073100000FCFDCF80935700E89507B600FCFDCF39
:10732000E058FF4FA0E7E030FA0771F7A2CF8237AD
:1073300039F4E1E0F0E089E0809357008491A8C13E
:10734000863439F4E0E0F0E089E0809357008491DE
:107350009FC18E3439F4E3E0F0E089E08093570078
:10736000849196C1813539F4E2E0F0E089E08093C0
:10737000570084918DC1823631F489E526DF80E0A3
:1073800024DF80E885C1823419F0873609F0E5C032
:107390001092B9011092B80100DF082FFEDEF82E1E
:1073A000FCDE682E8554823008F071C1902F80E099
:1073B000CF2DD0E0C82BD92B10926F00173609F0D3
:1073C0004BC081E180935700E895DD24CC24C39421
:1073D0003FC0E090BD01F090BE010091BF0110914F
:1073E000C001B6E46B16D9F4ED2DF0E0EE29FF29CB
:1073F000E4918E2FEADEDD2081F082E090E0A0E0D3
:10740000B0E0E80EF91E0A1F1B1FE092BD01F092CA
:10741000BE010093BF011093C001DC2418C0D80145
:10742000C701B695A7959795879575D5CEDE82E06D
:1074300090E0A0E0B0E0E80EF91E0A1F1B1FE092EA
:10744000BD01F092BE010093BF011093C0012197CE
:10745000209709F0BECF7DC08090BD019090BE0105
:10746000A090BF01B090C00196E4691609F05DC01C
:1074700083E0F40180935700E89507B600FCFDCF48
:1074800054C0F6E46F1661F5772031F1E090BD014C
:10749000F090BE010091BF011091C0017EDED82E98
:1074A000CC24852D90E08C299D29F7010C01409278
:1074B0005700E895112482E090E0A0E0B0E0E80EEB
:1074C000F91E0A1F1B1FE092BD01F092BE0100933E
:1074D000BF011093C00102C060DE582E742423C087
:1074E000E090BD01F090BE010091BF011091C0017C
:1074F00016950795F794E79450DE682FC70113D5CA
:107500008091BD019091BE01A091BF01B091C001D9
:107510000296A11DB11D8093BD019093BE01A09361
:10752000BF01B093C001219704C05524772444249F
:107530004394209709F0A5CF96E4691641F485E0BD
:10754000F40180935700E89507B600FCFDCF8DE06D
:107550003CDE82E080936F009CC0833471F4009124
:10756000BD011091BE0119DE90E021E0F8010C018F
:1075700020935700E89511247CCE833619F5E090CE
:10758000BD01F090BE010091BF011091C00105DE68
:10759000F701E16090E021E00C0120935700E895AD
:1075A000112482E090E0A0E0B0E0E80EF91E0A1F8E
:1075B0001B1FE092BD01F092BE010093BF0110932A
:1075C000C00157CE8D3661F4E091BD01F091BE014E
:1075D00085E080935700E89507B600FCFDCF49CEC3
:1075E000823551F4E091BD01F091BE0105911491F5
:1075F000812FEBDD802F4CC0843421F5E090BD015C
:10760000F090BE010091BF011091C0011695079541
:10761000F794E794C2DD682FC70185D48091BD013E
:107620009091BE01A091BF01B091C0010296A11D31
:10763000B11D8093BD019093BE01A093BF01B09393
:10764000C00117CE843609F5E090BD01F090BE016F
:107650000091BF011091C001D801C701B695A7954F
:107660009795879558D4B1DD82E090E0A0E0B0E036
:10767000E80EF91E0A1F1B1FE092BD01F092BE0129
:107680000093BF011093C00104C08B3111F08FE350
:107690009CDD83E08093E9009091E8008091E80010
:1076A0008E778093E80095FF04C010C08EB38823C6
:1076B000C9F08091E80080FFF9CF8091E8008E77D3
:1076C0008093E80003C08EB3882361F08091E800C6
:1076D00080FFF9CF84E08093E9008091E8008B7708
:1076E0008093E800DF91CF911F910F91FF90EF9071
:1076F000DF90CF90BF90AF909F908F907F906F90D2
:107700005F904F9008959091C501892F8F778132B6
:1077100049F58091C6018032A1F0813219F5913A84
:1077200009F58091E800877F8093E8008CE091E084
:1077300067E070E027D28091E8008B778093E800C3
:107740000895913279F48091E800877F8093E80072
:107750008CE091E067E070E079D28091E8008E776C
:107760008093E800089582E061EC42E0D1D083E0AC
:1077700061E842E1CDD084E060E842E1C9C01F93F6
:10778000209100081092000844B714BE88E10FB69B
:10779000F89480936000109260000FBE80E8E0E0F3
:1077A000F0E00FB6F89480936100E09361000FBEA3
:1077B00031E035BF92E095BF3F9A209A559A809369
:1077C00061001092610047985D9A289A1092890092
:1077D0008AEF8093880090936F0083E0809381000C
:1077E000859194918F5F9F4F11F03093BC01942F3E
:1077F00041FF19C0809109012817A9F08093000862
:10780000789480911301882339F08091BA01909186
:10781000BB018F5E9240C8F3F8941092000881E09B
:10782000809313010CC090FF04C08091BC01882399
:1078300051F493FF09C080910901281729F0809124
:10784000BC01882309F04EDCD4D078941092B901A1
:107850001092B8011EEF20C0D7DC4BD38091B80145
:107860009091B90181549F4110F0109213018091C1
:10787000C1019091C20101969093C2018093C10110
:10788000292F97FF03C0512F591B252F220F28178F
:1078900010F4479801C0479A809113018823E1F6BC
:1078A0008091E00081608093E0001CDC80E090E04B
:1078B0001F910895FA01923049F0933061F09130B0
:1078C000F9F484E191E022E130E01EC086E291E02B
:1078D0002EE330E019C0882329F484E691E024E007
:1078E00030E012C0813029F488E691E02EE130E0EA
:1078F0000BC0823029F488E891E02AE230E004C02D
:1079000080E090E020E030E091838083C901089519
:107910008093E9008091EB0081608093EB001092EE
:10792000ED006093EC004093ED008091EE00881F25
:107930008827881F08958091C50188238CF403C08F
:107940008EB38823B1F08091E80082FFF9CF809157
:10795000E8008B778093E80008958EB3882349F080
:107960008091E80080FFF9CF8091E8008E778093C6
:10797000E8000895EF92FF920F931F9345D04CD0EB
:1079800008ED10E0F80180818F7780838081806826
:10799000808380818F7D808319BC1EBA1092C301C1
:1079A00080EEE82EF12CF70180818B7F8083F80137
:1079B00080818160808380E060E042E0A9DFE1EEC9
:1079C000F0E080818E7F8083E2EEF0E08081816054
:1079D0008083808188608083F70180818E7F8083AF
:1079E000F8018081806180831F910F91FF90EF905B
:1079F0000895E7EDF0E08081816080838AE482BFB2
:107A000081E08093C401B6CFE8EDF0E080818E7F05
:107A100080831092E20008951092DA001092E10043
:107A200008951F920F920FB60F9211242F933F9338
:107A30004F935F936F937F938F939F93AF93BF9376
:107A4000EF93FF938091DA0080FF1BC08091D800F4
:107A500080FF17C08091DA008E7F8093DA008091DA
:107A6000D90080FF0BC080E189BD82E189BD09B4E6
:107A700000FEFDCF81E08EBB3BD203C019BC1EBA15
:107A800037D28091E10080FF17C08091E20080FF33
:107A900013C08091E2008E7F8093E2008091E2002B
:107AA00080618093E2008091D80080628093D8004A
:107AB00019BC85E08EBB1CD28091E10084FF2CC0F4
:107AC0008091E20084FF28C080E189BD82E189BD08
:107AD00009B400FEFDCF8091D8008F7D8093D8003F
:107AE0008091E1008F7E8093E1008091E2008F7EA3
:107AF0008093E2008091E20081608093E2008091B7
:107B0000C301882331F48091E30087FD02C081E046
:107B100001C084E08EBBECD18091E10083FF21C0E5
:107B20008091E20083FF1DC08091E100877F8093F8
:107B3000E10082E08EBB1092C3018091E1008E7F54
:107B40008093E1008091E2008E7F8093E20080913B
:107B5000E20080618093E20080E060E042E0D8DEF5
:107B6000C7D1FF91EF91BF91AF919F918F917F917D
:107B70006F915F914F913F912F910F900FBE0F909A
:107B80001F9018959C014091CB015091CC01461754
:107B9000570718F4F90190E044C06115710511F020
:107BA000AB01F8CF8091E8008E778093E80040E049
:107BB00050E0F0CF8EB3882309F444C0853009F437
:107BC00043C08091E80083FF02C081E00895809166
:107BD000E80082FD31C08091E80080FF22C08091E2
:107BE000F3009091F200782F60E0292F30E0262BEF
:107BF000372B07C081918093F100415050402F5F97
:107C00003F4F4115510519F02830310598F390E0A8
:107C10002830310509F491E08091E8008E77809357
:107C2000E8004115510531F6992321F605C08EB3C0
:107C3000882341F0853041F08091E80082FFF7CF42
:107C400080E0089582E0089583E008959C01611525
:107C5000710529F48091E8008B778093E800F901A1
:107C600026C08EB3882391F1853091F18091E80090
:107C700083FF02C081E008958091E80082FFF1CF88
:107C800006C08091F10081936150704059F02091BD
:107C9000F3008091F200322F20E090E0822B932BB2
:107CA000892B79F78091E8008B778093E800611544
:107CB0007105B9F605C08EB3882341F0853041F0D7
:107CC0008091E80080FFF7CF80E0089582E008957A
:107CD00083E008950F931F93DF93CF9300D0CDB728
:107CE000DEB7E5ECF1E08091F100819381E0ED3CBD
:107CF000F807C9F708DD8091E80083FFE4C08091B0
:107D0000C5019091C601953009F46DC0963040F4DC
:107D1000913081F1913070F0933009F0D4C02AC0D5
:107D2000983009F4A3C0993009F4B2C0963009F034
:107D3000CAC07CC0803809F4C6C0823809F0C3C00C
:107D40008091C90187708093E9008091EB001092C7
:107D5000E9002091E800277F2093E80090E025E0EB
:107D6000969587952A95E1F781708093F10010929E
:107D7000F10087C0882319F0823009F0A4C08F7108
:107D8000823009F0A0C08091C701882331F520918D
:107D9000C901277009F497C02093E9008091EB0096
:107DA00080FF1BC0933021F48091EB00806213C0F0
:107DB0008091EB0080618093EB0081E090E002C055
:107DC000880F991F2A95E2F78093EA001092EA0043
:107DD0008091EB0088608093EB001092E900809125
:107DE000E800877F51C0882309F06DC01091C7015A
:107DF0001F770FB7F8948091E800877F8093E800A1
:107E00009ADD8091E80080FFFCCF8091E3008078CC
:107E1000812B8093E30080688093E300112311F4A9
:107E200082E001C083E08EBB0FBF4DC0805882301E
:107E300008F049C08091C7019091C8016091C901C3
:107E4000AE014F5F5F4F36DDBC01009709F43BC0C8
:107E50008091E800877F8093E80089819A8192DE93
:107E60008091E8008B778093E8002DC0803859F529
:107E70008091E800877F8093E8008091C301809320
:107E8000F1008091E8008E778093E80054DD1BC0FC
:107E90008823C9F49091C7019230A8F48091E8003A
:107EA000877F8093E8009093C30145DD8091C301F3
:107EB000882331F48091E30087FD02C081E001C096
:107EC00084E08EBB50DC8091E80083FF0AC0809183
:107ED000EB0080628093EB008091E800877F8093C5
:107EE000E8000F900F90CF91DF911F910F910895AF
:107EF00008951F938EB3882361F01091E9001092CA
:107F0000E9008091E80083FF01C0E4DE1770109360
:107F1000E9001F910895F999FECF92BD81BDF89AAD
:107F2000992780B50895262FF999FECF1FBA92BDE3
:107F300081BD20BD0FB6F894FA9AF99A0FBE01964A
:067F40000895F894FFCF44
:107F46004341544552494E41007700080000000065
:107F56000000080112011001020000084F1B0592E3
:107F660001000201000109023E00020100803209FF
:107F7600040000010202010005240010010424028D
:107F8600040524060001070582030800FF09040111
:107F960000020A000000070504021000010705831D
:107FA60002100001040309041E03500072006F0052
:107FB60020004D006900630072006F00200035004C
:107FC60056002000200000002A03530070006100C4
:107FD60072006B00460075006E00200045006C00C4
:107FE60065006300740072006F006E006900630034
:047FF6007300000014
:040000030000700089
:00000001FF
