:100000000C947E000C94A6000C94A6000C94A60000
:100010000C94A6000C94A6000C94A6000C946C0200
:100020000C94A6000C94A6000C94A6000C94A600B8
:100030000C94A6000C946A030C94A6000C94A600E1
:100040000C9420030C94A6000C94EE020C94C802AD
:100050000C94A6000C94A6000C94A6000C94A60088
:100060000C94A6000C94A600D308F80BE808F80B33
:100070000209F80B2D09F80B5609F80B9909F80B32
:10008000180AF80B570AF80B6C0AF80B9E0AF80BC3
:10009000120BF80B7D0BF80BCC0BF80BD90B0000F7
:1000A0000000240027002A00000000002300260092
:1000B00029000102040810204080010204081020D9
:1000C00001020408102000000000250028002B0079
:1000D00004040404040404040202020202020303EE
:1000E00003030303020000000800020100000304F0
:1000F00007000000000000000000FD0B11241FBEDF
:10010000CFEFD8E0DEBFCDBF11E0A0E0B1E0ECE47E
:10011000F9E102C005900D92A431B107D9F722E0B0
:10012000A4E1B1E001C01D92A935B207E1F710E0EA
:10013000CEE7D0E004C02197FE010E947F0CCD37AE
:10014000D107C9F70E94DA060C94A40C0C940000A5
:100150008091BB0181112EC090E29093800090911C
:10016000BA01992319F01092BA0102C02D9A2D9864
:10017000E2EAF1E090819EBD0DB407FEFDCF9181D2
:100180009EBD0DB407FEFDCF3396DF0111979C9104
:100190009EBD0DB407FEFDCF91E0EA3BF90750F399
:1001A00091E09093BB0120EA20938000B09A909355
:1001B0006F00089581E00895CF92DF92EF92FF9251
:1001C0000F931F93CF93DF936C017A018B01C0E0F3
:1001D000D0E0CE15DF0589F0D8016D918D01D601F3
:1001E000ED91FC910190F081E02DC6010995892BDC
:1001F00011F47E0102C02196ECCFC701DF91CF91AF
:100200001F910F91FF90EF90DF90CF900895089588
:1002100080E090E00895FC01538D448D252F30E05F
:10022000842F90E0821B930B541710F0CF96089503
:1002300001970895FC01918D828D981761F0828D50
:10024000DF01A80FB11D5D968C91928D9F5F9F730A
:10025000928F90E008958FEF9FEF0895FC01918DAC
:10026000828D981731F0828DE80FF11D858D90E019
:1002700008958FEF9FEF0895FC01918D228D892FB6
:1002800090E0805C9F4F821B91098F73992708959E
:100290008CEB91E00E943C0121E0892B09F420E0E5
:1002A000822F0895FC01848DDF01A80FB11DA35A90
:1002B000BF4F2C91848D90E001968F739927848F86
:1002C000A689B7892C93A089B1898C9180648C937D
:1002D000938D848D981306C00288F389E02D808168
:1002E0008F7D80830895EF92FF920F931F93CF939A
:1002F000DF93EC0181E0888F9B8D8C8D981305C076
:10030000E889F989808185FD24C0F62E0B8D10E0E7
:100310000F5F1F4F0F731127E02E8C8DE8120CC05A
:100320000FB607FCFACFE889F989808185FFF5CF00
:10033000CE010E945201F1CF8B8DFE01E80FF11D1D
:10034000E35AFF4FF0820B8FEA89FB89808180623C
:1003500007C0EE89FF896083E889F989808180641C
:10036000808381E090E0DF91CF911F910F91FF900A
:10037000EF900895CF93DF93EC01888D8823C9F027
:10038000EA89FB89808185FD05C0A889B9898C919E
:1003900086FD0FC00FB607FCF5CF808185FFF2CF39
:1003A000A889B9898C9185FFEDCFCE010E945201B9
:1003B000E7CFDF91CF91089580E090E0892B29F07D
:1003C0000E94480181110C9400000895833081F04F
:1003D00028F4813099F08230A1F008958730A9F097
:1003E0008830B9F08430D1F4809180008F7D03C0D3
:1003F000809180008F7780938000089584B58F77F7
:1004000002C084B58F7D84BD08958091B0008F7740
:1004100003C08091B0008F7D8093B00008951F933A
:10042000CF93DF93282F30E0F901EB51FF4F8491F8
:10043000F901EE54FF4FD491F901E053FF4FC491FD
:10044000CC23C9F0162F81110E94E601EC2FF0E0B9
:10045000EE0FFF1FEA53FF4FA591B4918FB7F894A9
:10046000111105C09C91ED2FE095E92302C0EC919C
:10047000ED2BEC938FBFDF91CF911F910895909159
:100480000001981324C0E4EEF0E0E4919FEF909314
:100490000001E130B9F098F0E230C9F490917000B9
:1004A0009D7F9093700091E09093B0009091B10087
:1004B000987F94609093B1001092B30008C010929E
:1004C0006E0005C090916F009D7F90936F0060E07B
:1004D0000C940F020E949F0C1F920F920FB60F9266
:1004E00011242F933F934F935F936F937F938F9339
:1004F0009F93AF93BF93EF93FF93809130019091BF
:100500003101A0913201B0913301892B8A2B8B2BC1
:1005100051F180912F01E0912D01F0912E019081F8
:10052000892780838091300190913101A09132011F
:10053000B0913301181619061A061B06C4F48091EF
:10054000300190913101A0913201B09133010197B6
:10055000A109B1098093300190933101A093320138
:10056000B093330104C0809100010E943F02FF91CB
:10057000EF91BF91AF919F918F917F916F915F911B
:100580004F913F912F910F900FBE0F901F90189594
:100590001F920F920FB60F9211242F933F934F93F8
:1005A0005F936F937F938F939F93AF93BF93EF93DB
:1005B000FF938CEB91E00E945201FF91EF91BF916C
:1005C000AF919F918F917F916F915F914F913F91EB
:1005D0002F910F900FBE0F901F9018951F920F92A2
:1005E0000FB60F9211242F938F939F93EF93FF9346
:1005F000E091CC01F091CD018081E091D201F091A8
:10060000D30182FD12C090818091D5018F5F8F73DD
:100610002091D601821751F0E091D501F0E0E45429
:10062000FE4F958F8093D50101C08081FF91EF919E
:100630009F918F912F910F900FBE0F901F90189543
:100640001F920F920FB60F9211242F933F938F9307
:100650009F93AF93BF9380911B0190911C01A09138
:100660001D01B0911E0130911A0123E0230F2D3797
:1006700020F40196A11DB11D05C026E8230F0296A6
:10068000A11DB11D20931A0180931B0190931C01A1
:10069000A0931D01B0931E01809116019091170146
:1006A000A0911801B09119010196A11DB11D80936F
:1006B000160190931701A0931801B0931901BF91EF
:1006C000AF919F918F913F912F910F900FBE0F90FF
:1006D0001F9018951F920F920FB60F9211242F930F
:1006E0003F934F935F936F937F938F939F93AF93BA
:1006F000BF93EF93FF9380E28093800010926F008E
:100700001092BB01E0911401F0911501309711F0A6
:1007100078940995FF91EF91BF91AF919F918F913F
:100720007F916F915F914F913F912F910F900FBEED
:100730000F901F901895682F8CEB91E00C9473012B
:10074000682F8CEB91E00C947301CF93DF93282FEB
:1007500030E0F901EB51FF4F8491F901EE54FF4F66
:10076000D491F901E053FF4FC491CC2391F0811152
:100770000E94E601EC2FF0E0EE0FFF1FE855FF4F5F
:10078000A591B491EC91ED2381E090E021F480E01B
:1007900002C080E090E0DF91CF910895CF93DF9386
:1007A00090E0FC01EE54FF4F2491FC01E053FF4F19
:1007B0008491882361F190E0880F991FFC01E25633
:1007C000FF4FC591D491FC01EA53FF4FA591B4911D
:1007D000611109C09FB7F89488812095822388838E
:1007E000EC912E230BC0623061F49FB7F8943881EE
:1007F000822F809583238883EC912E2B2C939FBF8F
:1008000006C08FB7F894E8812E2B28838FBFDF9125
:10081000CF9108953F924F925F926F927F928F9205
:100820009F92AF92BF92CF92DF92EF92FF920F937F
:100830001F93CF93DF9300D000D0CDB7DEB7909158
:100840000001981721F09F3F09F036C204C0E4EE82
:10085000F0E0349081C080930001E4EEF0E0E49198
:10086000EF3F09F429C2E13031F1E23009F44BC025
:10087000E11171C014BC15BC94B5926094BD95B5DE
:10088000916095BDA82FB0E0FD01E053FF4FE491CA
:10089000F0E0EE0FFF1FEA53FF4F05911491109304
:1008A000240100932301FD01EE54FF4FE491E093F6
:1008B0002201312C53C0109280001092810090913F
:1008C0008100986090938100909181009160909355
:1008D0008100A82FB0E0FD01E053FF4FE491F0E06C
:1008E000EE0FFF1FEA53FF4F059114911093210162
:1008F00000932001FD01EE54FF4FE491E0931F01AE
:10090000332433942BC01092B0001092B100909118
:10091000B00092609093B0009091B100916090937C
:10092000B100A82FB0E0FD01E053FF4FE491F0E0EB
:10093000EE0FFF1FEA53FF4F0591149110932E0104
:1009400000932D01FD01EE54FF4FE491E0932F0140
:1009500002E0302E03C03E2E37FCAEC129013A0121
:100960008B0161E00E94CE034801A12CB12C832DA4
:100970008D7F09F0BBC060E072E18AE790E0A501DD
:1009800094010E94600C29833A834B835C83690144
:100990007A0121E0C21AD108E108F1088FEFC816E8
:1009A000D104E104F10409F008F44CC060E472E4FD
:1009B0008FE090E0A50194010E94600C69017A012A
:1009C000E1E0CE1AD108E108F108F2E03F1220C0C0
:1009D0002FEFC216D104E104F10409F008F46AC152
:1009E00060E970ED83E090E0A50194010E94600C45
:1009F00069017A0181E0C81AD108E108F108EFEF36
:100A0000CE16D104E104F10409F0D0F583E067C00B
:100A1000FFEFCF16D104E104F104B1F0A8F068E4CF
:100A200078EE81E090E0A50194010E94600C6901DC
:100A30007A0181E0C81AD108E108F108332009F4ED
:100A4000DFC02FC181E001C082E03320A1F047C0A8
:100A500089819A81AB81BC812AE0B595A79597954C
:100A600087952A95D1F76C017D0121E0C21AD10842
:100A7000E108F10885E095B5987F892B85BD6FC0A9
:100A800068E478EE81E090E0A50194010E94600C9A
:100A900069017A01F1E0CF1AD108E108F1082FEFDE
:100AA000C216D104E104F10409F008F4A7C064E21D
:100AB00074EF80E090E0A50194010E94600C690150
:100AC0007A01E1E0CE1AD108E108F108FFEFCF1674
:100AD000D104E104F10411F008F0B4C085E0909174
:100AE000B100987F892B8093B10039C060E072E13A
:100AF0008AE790E0A50194010E94600C69017A01E7
:100B000081E0C81AD108E108F108C114D104E1E07C
:100B1000EE06F10488F068E478EE81E090E0A5014B
:100B200094010E94600C69017A01F1E0CF1AD108AA
:100B3000E108F10893E001C091E021E032120FC01A
:100B400080918100887F892B80938100411451041A
:100B50006104710449F42FEF3FEFA9012DC0411446
:100B600051046104710471F0D801AA0FBB1FA301E5
:100B700092010E94850C28EE33E040E050E00E9494
:100B80003E0C03C02FEF3FEFA90181E03816A1F022
:100B9000E2E03E1619F131108FC0C7BC2093290145
:100BA00030932A0140932B0150932C0180916E00C9
:100BB000826080936E0080C0D0928900C0928800CD
:100BC000209325013093260140932701509328015B
:100BD00080916F00826080936F006EC0C092B300FE
:100BE000209330013093310140933201509333010F
:100BF000809170008260809370005EC084E06FCF4F
:100C0000FFEFCF16D104E104F104D1F0C8F062E1A6
:100C10007AE780E090E0A50194010E94600C6901F0
:100C20007A0181E0C81AD108E108F108EFEFCE1689
:100C3000D104E104F10411F008F00ACF84E01BCFE5
:100C400083E019CF62E17AE780E090E0A5019401AA
:100C50000E94600C69017A0181E0C81AD108E1089C
:100C6000F108EFEFCE16D104E104F104C1F0B8F0C1
:100C700089819A81AB81BC814AE0B595A79597950A
:100C800087954A95D1F76C017D0121E0C21AD10800
:100C9000E108F108332009F4EDCE87E020CF86E0AB
:100CA000D4CEFFEFCF16D104E104F10409F050F6E1
:100CB00084E0CBCE82E013CF0F900F900F900F9077
:100CC000DF91CF911F910F91FF90EF90DF90CF9028
:100CD000BF90AF909F908F907F906F905F904F905C
:100CE0003F9008956FEE8CEB91E00E9473016FEEE0
:100CF0008CEB91E00E9473016FEE8CEB91E00E940F
:100D000073018CEB91E00C94BA01CF92DF92EF92D9
:100D1000FF920F931F93CF93DF9300D000D0CDB7F6
:100D2000DEB79FB7F894C0901B01D0901C01E090F3
:100D30001D01F0901E019FBF082F10E08CEB91E089
:100D400049835A836B837C830E943C0149815A8189
:100D50006B817C8180179107A4F42FB7F894809160
:100D60001B0190911C01A0911D01B0911E012FBF8C
:100D70008C199D09AE09BF0984179507A607B70707
:100D8000E8F28CEB91E00E943C018017910724F47B
:100D90000E94720680E001C081E00F900F900F90DA
:100DA0000F90DF91CF911F910F91FF90EF90DF9007
:100DB000CF900895789484B5826084BD84B58160B5
:100DC00084BD85B5826085BD85B5816085BD809116
:100DD0006E00816080936E0010928100809181008E
:100DE0008260809381008091810081608093810086
:100DF000809180008160809380008091B100846048
:100E00008093B1008091B00081608093B0008091A8
:100E10007A00846080937A0080917A008260809367
:100E20007A0080917A00816080937A0080917A00C4
:100E3000806880937A001092C100E091CC01F0911B
:100E4000CD0182E08083E091C801F091C901108258
:100E5000E091CA01F091CB0180E180831092D4012E
:100E6000E091D001F091D10186E08083E091CE0144
:100E7000F091CF01808180618083E091CE01F0917B
:100E8000CF01808188608083E091CE01F091CF0115
:100E9000808180688083E091CE01F091CF018081D4
:100EA0008F7D8083219A229A539A2A9A239A259A8F
:100EB000229A2D9881E08DBD80E58CBDE2EAF1E0BB
:100EC000108211823396DF0111971C9241E0EA3BB8
:100ED000F407B0F30E94A80080E280938000109293
:100EE0006F001092BB01299A29988093800080E1BD
:100EF0008093810081E090E0909389008093880046
:100F000082E090E090938B0080938A0080E090E2F2
:100F1000909387008093860083E28093B00088E0FE
:100F20008093B1001092B40083E08093B30080916D
:100F3000B10081608093B1008091810081608093D5
:100F400081000E94A800EE24EA94F12C3FE0B32E29
:100F500042E0A42EE2E6F1E0119251E0E23AF50718
:100F6000D9F78CEB91E00E943C010497D0F38CEB15
:100F700091E00E941A01809361018F3F09F03AC409
:100F80008CEB91E00E941A01809361018E3F09F081
:100F900031C48CEB91E00E941A01809361018D3F76
:100FA00009F028C48CEB91E00E941A018093610142
:100FB0008C3F09F01FC48CEF90E00E94A0038DEFDE
:100FC00090E00E94A0038EEF90E00E94A0038FEFBC
:100FD00090E00E94A0038CEB91E00E94BA014AEFDE
:100FE00050E060E070E083E00E948506882309F409
:100FF00001C48CEB91E00E941A018B3F910509F02E
:10100000F9C38CEB91E00E941A01C82F8093600114
:101010008CEB91E00E941A018C01882E80935F0175
:10102000682F8CEB91E00E9473016C2F8CEB91E0A8
:101030000E9473016BEF8CEB91E00E9473018CEBCB
:1010400091E00E94BA0148EE53E060E070E084E075
:10105000800F0E948506882309F4CCC392E6692E8E
:1010600091E0792E11276801B3E0CB0ED11CC301AA
:1010700082569140C816D90644F08CEB91E00E944C
:101080001A01D3018D933D01F2CF0E5F1F4FF8017E
:10109000EE59FE4F908090925E01F601EE59FE4FA0
:1010A000D081D0935D0148EE53E060E070E081E0D4
:1010B0000E948506882309F49DC38CEB91E00E9471
:1010C0001A018A3F910509F095C382E6C82E81E096
:1010D000D82EE0E0F0E020E030E0C60182569140FA
:1010E0008017910790F4D6018D916D01A901480FE9
:1010F000511DCA01B7010E942A0C9C018E0F9F1F2F
:10110000B7010E942A0CFC01E8CFFE2FEE272E2B00
:101110003F2B30935C0120935B01F901FF27F09393
:101120005A01E0935901232F33273093580120931C
:101130005701C9018E0F9F1FB7010E942A0C97010A
:10114000281B390B3093560120935501C9018E0F8E
:101150009F1FB7010E942A0CA701481B590B5093EF
:10116000540140935301892D90E02817390709F065
:101170003FC38D2F90E04817590709F039C380917C
:101180006201C81335C380916301881231C38C2F6B
:1011900090E0FC013197EB31F10508F029C3EC5CDC
:1011A000FF4F0C947F0C69EF8CEB91E00E94730170
:1011B00083E090E00E94A00362E08CEB91E00E944B
:1011C000730181E090E00E949B0382E090E0B3C154
:1011D00080916401082F10E0109352010093510197
:1011E0000E94A503EC019093500180934F0169EF99
:1011F0008CEB91E00E94730183E090E00E94A003D9
:1012000064E023C080916401082F10E010934E0128
:1012100000934D01C0916501D0E0D0935001C0937F
:101220004F01209711F460E004C0C130D10519F4DA
:1012300061E00E940F0269EF8CEB91E00E94730164
:1012400083E090E00E94A00366E08CEB91E00E94B6
:101250007301C8010E949B036DC180916401082F36
:1012600010E010934E0100934D01C0916501D0E054
:10127000D0935001C0934F01209711F460E009C052
:10128000C130D10511F462E004C0C230D10519F4B7
:1012900061E00E94CE0369EF8CEB91E00E94730144
:1012A00083E090E00E94A00368E0CFCF80916401CA
:1012B000282F30E030934C0120934B018E3008F002
:1012C0008E5087702091010150E4259F90011124D8
:1012D000822B80937C0080917A00806480937A00D6
:1012E00080917A0086FDFCCFC091780080917900D2
:1012F000D0E0D82BD0934A01C093490169EF8CEB21
:1013000091E00E94730184E090E00E94A0036AE0F3
:101310008CEB91E00E94730180914B0190914C0104
:101320000E949B038D2F90E00E949B03CE01992782
:1013300002C110916401C12FD0E0D0934801C09345
:10134000470100916501C02ED12CD0924601C09278
:10135000450161E0812F0E94CE03C114D10409F43C
:1013600048C08FEFC816D10409F445C0FE01EB5107
:10137000FF4FE491E330F9F048F4E130B9F0E230A6
:10138000A1F584B5806284BD08BD39C0E730E9F0BD
:10139000E83019F1E43049F5809180008062809353
:1013A0008000D0928B00C0928A0029C084B58068EA
:1013B00084BD07BD24C08091800080688093800038
:1013C000D0928900C09288001AC08091B0008068D5
:1013D0008093B0000093B30012C08091B00080628F
:1013E0008093B0000093B4000AC090E8C916D104FD
:1013F00014F460E001C061E0812F0E940F0269EFE8
:101400008CEB91E00E94730183E090E00E94A003C6
:101410006CE08CEB91E00E94730180914701909108
:1014200048010E949B03809145019091460183C031
:1014300080916401282F30E030934E0120934D01BC
:101440006091650170E0762F662790916601690FC3
:10145000711D70934401609343012091690130E054
:10146000322F222790916A01290F311D032E000C83
:10147000440B550B20933F013093400140934101B1
:1014800050934201211531054105510519F420E021
:1014900030E0A9010E940A0469EF8CEB91E00E9400
:1014A000730181E090E00E94A0036EE098C18091FA
:1014B0006401282F30E030934E0120934D010E94AB
:1014C0003F0269EF8CEB91E00E94730181E090E0B4
:1014D0000E94A00360E183C1C0916401D0E0D09379
:1014E0003E01C0933D01209711F481E00DC0C13051
:1014F000D10549F0C230D10519F4A09201010CC008
:10150000C330D10521F483E08093010105C0C430CC
:10151000D10511F41092010169EF8CEB91E00E946A
:10152000730182E090E00E94A00362E18CEB91E005
:101530000E947301CE010E949B0355C1609064011B
:10154000062D10E010934E0100934D01C0916501EE
:10155000CC2ED12CD0923C01C0923B01D09166019F
:10156000D0933A017090670170923901D1113AC05D
:10157000412C512C872C912CB401042C02C0759560
:1015800067950A94E2F761707727862D0E940F0213
:1015900061E08C2F0E940F0260E08C2F0E940F02EE
:1015A000AFEF4A1A5A0AB8E04B16510429F769EF0F
:1015B0008CEB91E00E94730185E090E00E94A00313
:1015C00064E18CEB91E00E947301C8010E949B03CF
:1015D000C6010E949B036D2F8CEB91E00E9473016A
:1015E000672DFDC0D13019F777E0472E512C872C9D
:1015F000912CB401042C02C0759567950A94E2F70A
:1016000061707727862D0E940F0261E08C2F0E9467
:101610000F0260E08C2F0E940F02E1E04E1A510889
:1016200040F7C5CF50906401C52CD12CD0924E010B
:10163000C0924D01C09165010C2F10E010933C0148
:1016400000933B01D0916601D0933A01D1111CC0A7
:10165000812C912C712C61E08C2F0E940F02852D22
:101660000E94A503082C01C0880F0A94EAF7782A83
:1016700060E08C2F0E940F024FEF841A940A58E00A
:101680008516910441F71BC0D130D9F467E0862E4E
:10169000912C712C61E08C2F0E940F02852D0E94ED
:1016A000A503082C01C0880F0A94EAF7782A60E0A5
:1016B0008C2F0E940F0281E0881A910858F77092CF
:1016C000380169EF8CEB91E00E94730185E090E0B6
:1016D0000E94A00366E18CEB91E00E947301C601B9
:1016E0000E949B03C8010E949B036D2F8CEB91E02D
:1016F0000E9473016091380172C080916401C82F0B
:10170000D0E0D0933701C0933601909165012091CC
:10171000660130E0A0E19A9F200D311D1124309325
:101720003501209334014B2D481BB3E04B9FC00182
:10173000112496958795FC01EE55FE4F40FF05C09C
:101740009081907F932B90830CC0C90134E09695D3
:1017500087953A95E1F7808381818F702295207F6C
:10176000282B218369EF8CEB91E00E94730182E0CA
:1017700090E00E94A00368E18CEB91E00E9473016D
:10178000CE010E949B03609165018CEB91E00E9469
:1017900073016091660123C00E94A80069EF8CEB81
:1017A00091E00E94730181E090E00E94A0036AE151
:1017B00016C0E2EAF1E0108211823396DF01119740
:1017C0001C9241E0EA3BF407B0F369EF8CEB91E047
:1017D0000E94730181E090E00E94A0036CE18CEB19
:1017E00091E00E9473018CEB91E00E94BA0102C06B
:1017F0000E9472060E94DC01ADCBECEBF1E013829B
:10180000128288EE93E0A0E0B0E084839583A68303
:10181000B78386E091E09183808385EC90E09587A3
:10182000848784EC90E09787868780EC90E0918BAA
:10183000808B81EC90E0938B828B82EC90E0958B97
:10184000848B86EC90E0978B868B118E128E138E94
:10185000148E0895AA1BBB1B51E107C0AA1FBB1F12
:10186000A617B70710F0A61BB70B881F991F5A952C
:10187000A9F780959095BC01CD010895A1E21A2E9B
:10188000AA1BBB1BFD010DC0AA1FBB1FEE1FFF1F24
:10189000A217B307E407F50720F0A21BB30BE40B74
:1018A000F50B661F771F881F991F1A9469F76095BB
:1018B0007095809590959B01AC01BD01CF01089575
:1018C000052E97FB1EF400940E94770C57FD07D05D
:1018D0000E943E0C07FC03D04EF40C94770C5095FC
:1018E0004095309521953F4F4F4F5F4F089590950C
:1018F0008095709561957F4F8F4F9F4F0895EE0FA4
:10190000FF1F0590F491E02D09940E94900CA59F73
:10191000900DB49F900DA49F800D911D11240895EA
:10192000A29FB001B39FC001A39F700D811D112420
:10193000911DB29F700D811D1124911D089581E0AC
:0C19400090E0F8940C94A40CF894FFCFF5
:10194C00FF01000000007301DC000B01BA013C0137
:04195C001A012E013D
:00000001FF
